:100000000C943E000C945B000C945B000C945B0021
:100010000C9476010C945B000C9491010C945B00A1
:100020000C945B000C945B000C945B000C945D00E2
:100030000C945B000C945B000C945B000C945B00D4
:100040000C945B000C945B000C945B000C945B00C4
:100050000C945B000C945B000C945B000C945B00B4
:100060000C945B000C945B000C945B000C945B00A4
:100070000C945B000C945B000C945B0011241FBE7D
:10008000CFEFCDBFDFE3DEBF18E3A0E0B8E3ECE4E1
:10009000F4E002C005900D92AC30B107D9F728E327
:1000A000ACE0B8E301C01D92AE30B207E1F70E94A8
:1000B000AA010C9424020C9400001F920F920FB618
:1000C0000F9211242F933F934F935F936F937F93DE
:1000D0008F939F93AF93BF93CF93DF93EF93FF9350
:1000E0001092200A1092210A80E280930B0A7894E1
:1000F00040910038509101389A01ADECBCEC0E945F
:1001000015029695879596958795969587959C0166
:10011000220F331F880F991F880F991F880F991F6F
:10012000820F931F9A01281B390BF901EE5FF74CE0
:10013000408120910038309101380E941502FC0165
:10014000F695E795F695E795F695E7959F010E9458
:1001500015029695879596958795969587959C0116
:10016000220F331F880F991F880F991F880F991F1F
:10017000820F931F9F01281B390BF901EE5FF74C8B
:100180005081209100383091013836952795369569
:100190002795ABE7B4E10E941502FC01F695E795BF
:1001A0009F01ADECBCEC0E94150296958795969543
:1001B0008795969587959C01220F331F880F991F6D
:1001C000880F991F880F991F820F931F9F01281B6B
:1001D000390BF901EE5FF74CE08120910038309146
:1001E0000138369527953695279536952795A5ECB0
:1001F000B0E20E941502EC01D295C295CF70CD27D6
:10020000DF70CD279E01ADECBCEC0E9415029695E7
:10021000879596958795969587959C01220F331F14
:10022000880F991F880F991F880F991F820F931F9E
:100230009E01281B390BD901AE5FB74C9C9181B14F
:10024000817081B989B18E7F89B985B18F7C85B97B
:1002500089B1817F89B980910C388230A9F028F466
:10026000882341F0813059F01EC0833099F08430EA
:10027000B1F019C085B1806185B941B914C089B1A7
:10028000886089B951B90FC085B1806285B986E0AF
:1002900081B909C089B1846089B9E1B904C089B163
:1002A000826089B991B980910C388F5F80930C3846
:1002B000853049F410920C3880910D38882319F05C
:1002C000815080930D38FF91EF91DF91CF91BF91D5
:1002D000AF919F918F917F916F915F914F913F91DE
:1002E0002F910F900FBE0F901F9018951F920F9295
:1002F0000FB60F9211248F93EF93FF93E9E2F4E08E
:100300008081826080837894309B03C08FEF8093DC
:100310000D38FF91EF918F910F900FBE0F901F90AE
:1003200018951F920F920FB60F9211248F93EF938F
:10033000FF931092480110924901E3E4F1E08081BB
:1003400082608083FF91EF918F910F900FBE0F908D
:100350001F90189588ED84BF1092600084BF9BE0C9
:10036000909361009FEF90B92CEF24B998B911B820
:1003700015B819B891E09093300428E02093310427
:1003800084BF90937C0082E0809342018093470178
:100390008091410180FDFCCF89EF809340018BE388
:1003A00090E080934C0190934D018DE08093000A82
:1003B0001092010A8FEF9FEF8093260A9093270AED
:1003C00081E090E080932A0A90932B0A80E2809348
:1003D0000A0A88E391E00197F1F700007894E0E5DC
:1003E000F0E08081897F8260808388E391E00197DB
:1003F000F1F70000789480910D388111F6CF81B12A
:10040000817081B989B18E7F89B985B18F7C85B9B9
:1004100089B1817F89B9E0E5F0E0808181608083E6
:10042000889580818E7F8083E0CFA29FB001B39FAB
:10043000C001A39F700D811D1124911DB29F700DED
:0C044000811D1124911D0895F894FFCF38
:0C044C00D2047E0CB69ECCDAFA4EFEDE26
:00000001FF
