S013000057696E646F77436C6F636B2E73726563AD
S11300000C943E000C945B000C945B000C945B001D
S11300100C941A030C945B000C943B030C945B004B
S11300200C945B000C945B000C9482010C945B00B8
S11300300C945B000C945B000C945B000C945B00D0
S11300400C945B000C945B000C945B000C945B00C0
S11300500C945B000C945B000C945B000C945B00B0
S11300600C945B000C945B000C945B000C945B00A0
S11300700C945B000C945B000C945B0011241FBE79
S1130080CFEFCDBFDFE3DEBF18E3A0E0B8E3E2EAE1
S1130090FBE002C005900D92A431B107D9F728E323
S11300A0A4E1B8E301C01D92A232B207E1F70E94B5
S11300B0A2030C94CF050C9400008DE180930606F6
S11300C081E080930806809108068111FCCF10928C
S11300D00806609110067091110680E090E00E947D
S11300E0AB049B01AC016AE979EA8CE894E40E94D0
S11300F00A040895CF92DF92EF92FF928DE18093EC
S1130100060681E080930806809108068111FCCFE1
S1130110E8E0F6E010828091100690911106809339
S11301201638909317381092310484B1826084B9E0
S113013085B18D7F85B989E28A95F1F700C084B1D4
S11301408D7F84B98AE08093060681E08083809164
S113015008068111FCCF1092080680911006909138
S11301601106809318389093193889E080933104EC
S1130170609118387091193880E090E00E94AB04C7
S11301802DEC3CEC4CE85FE30E943E056B017C01E6
S1130190609116387091173880E090E00E94AB04AB
S11301A09B01AC01C701B6010E940A04FF90EF90C5
S11301B0DF90CF9008950F931F93CF93DF938C011B
S11301C0C0E0D0E078C0319971C080E496E08093BB
S11301D01E3890931F3880910838823069F183303B
S11301E009F443C0813009F061C0319BFECF809196
S11301F01B38882319F010921B3858C00E945D00E8
S113020060930438709305388093063890930738C8
S11302100E947A006093003870930138809302380A
S11302209093033888EC80931A3889E698E1019713
S1130230F1F700C000003AC0319BFECF80911B381B
S1130240882319F010921B3831C0809120388F5FB9
S113025080932038883110F01092203889E698E194
S11302600197F1F700C0000021C0319BFECF8091BF
S11302701B38882319F010921B3818C0809121383C
S11302808F5F809321388C3388F0109221388091CD
S113029020388F5F80932038883110F010922038F6
S11302A089E698E10197F1F700C0000093E59A957B
S11302B0F1F700002196C017D10708F484CFDF912D
S11302C0CF911F910F91089581B1817081B989B146
S11302D08E7F89B985B18F7C85B989B1817F89B9D0
S11302E00895882319F08093083808958091083878
S11302F0833021F481E08093083808958F5F8093E0
S1130300083808951F920F920FB60F921124EF929E
S1130310FF920F931F932F933F934F935F936F938A
S11303207F938F939F93AF93BF93CF93DF93EF9379
S1130330FF9380911E3890911F38892B19F40E94E5
S1130340640161C11092200A1092210A80E1809315
S11303500B0A80911A38882309F46FC080910838F9
S1130360813009F06AC020E030E040E251E460915D
S113037004387091053880910638909107380E94AE
S11303803E050E947C04C62F20E030E040E251E4A8
S1130390609100387091013880910238909103384F
S11303A00E943E050E947C048DECC89FE12D11241F
S11303B0E695E695E6952E2F220F922F990F990F29
S11303C0920FC91BAC2FB0E0A75FB74CCC91E89F4C
S11303D0912D1124969596959695990F292F220F74
S11303E0220F920FE91BF0E0E75FF74CD081689F82
S11303F0E12D1124E695E695E6952E2F220F922FF6
S1130400990F990F920F691BA62FB0E0A75FB74C05
S11304101C91E89F812D1124869586958695880FD9
S1130420982F990F990F890FE81BF0E0E75FF74CBD
S11304300081FF24F394E12C55C0C0912138EDECE8
S1130440CE9FA12D1124A695A695A6959A2F990F16
S1130450892F880F880F890FC81BD0E0C75FD74C3E
S1130460C881AE9F812D1124869586958695880F27
S1130470982F990F990F890FA81BB0E0A75FB74C6D
S1130480DC91A0912038AE9F812D1124869586950C
S11304908695282F220F922F990F990F920FA91B3F
S11304A0B0E0A75FB74C1C918E9FE12D1124E69517
S11304B0E695E695EE0F9E2F990F990FE90F8E1B87
S11304C059F0E82FF0E0E75FF74C0081F12C0F2E94
S11304D0F6E0EF2EF02D06C0F12C00E00F2EF6E032
S11304E0EF2EF02D80910838823041F48091153838
S11304F08F5F80931538882374F412C0833041F4DD
S1130500809115388F5F8093153888233CF408C098
S11305101092153805C000E010E002C0D0E0C0E041
S11305200E946401809114388230E1F028F4882319
S113053041F0813071F02BC08330C9F08430F9F080
S113054026C085B1806185B9C1B989B18E7F89B969
S11305501EC089B1886089B9D1B989B18E7FF82A62
S1130560F9B815C085B1806285B9E1B810C089B108
S1130570846089B911B989B18E7F89B908C089B1FC
S1130580826089B901B989B18E7FF82AF9B880915E
S113059014388F5F809314388530A9F5109214387D
S11305A080911E3890911F38009729F0019780930D
S11305B01E3890931F3880911A38882319F081507F
S11305C080931A38319B05C010921C3810921D3844
S11305D01AC080911C3890911D38019680931C3864
S11305E090931D388D32914070F010921C38109207
S11305F01D38109248011092490180E00E94710157
S113060081E080931B38FF91EF91DF91CF91BF91EF
S1130610AF919F918F917F916F915F914F913F9196
S11306202F911F910F91FF90EF900F900FBE0F909D
S11306301F9018951F920F920FB60F9211248F934B
S11306409F93EF93FF93E9E2F4E0808182608083DB
S1130650309B08C0309B06C080E293E080931E3834
S113066090931F38FF91EF919F918F910F900FBE40
S11306700F901F9018951F920F920FB60F9211248E
S11306802F933F934F935F936F937F938F939F9396
S1130690AF93BF93EF93FF931092480110924901D7
S11306A0E3E4F1E0808182608083809108388130C6
S11306B091F4809121388F5F809321388C3358F0E6
S11306C010922138809120388F5F809320388831B0
S11306D010F01092203880911E3890911F38892B89
S11306E001F50E945D00609304387093053880938F
S11306F00638909307380E947A006093003870930C
S11307000138809302389093033820E030E040E4CD
S113071050E40E943905181624F483E58A95F1F70C
S11307200000FF91EF91BF91AF919F918F917F91C5
S11307306F915F914F913F912F910F900FBE0F904A
S11307401F90189588ED84BF1092600084BF9BE0D1
S1130750909361009FEF90B92CEF24B998B911B828
S113076015B819B891E09093300428E0209331042F
S113077084BF90937C0082E0809342018093470180
S11307808091410180FDFCCF89EF8093400110925C
S11307904C0110924D018DE08093000A1092010AE1
S11307A081E090E08093280A9093290A80E1809365
S11307B00A0A91E0909300061092010695E5909341
S11307C002068093A000E0E5F0E08081897F8260EA
S11307D0808388E391E00197F1F700007894809199
S11307E01E3890911F38892B81F40E94640181E0A6
S11307F00E94710110921A38E0E5F0E08081816076
S11308008083889580818E7F808385E090E00E943C
S1130810DB00E5CF0E941E040C94FF040E94F80440
S113082058F00E94F10440F029F45F3F29F00C9441
S1130830E80451110C9433050C94EE040E94100545
S113084068F39923B1F3552391F3951B550BBB27FB
S1130850AA2762177307840738F09F5F5F4F220F40
S1130860331F441FAA1FA9F335D00E2E3AF0E0E837
S113087032D091505040E695001CCAF72BD0FE2F81
S113088029D0660F771F881FBB1F26173707480715
S1130890AB07B0E809F0BB0B802DBF01FF279358CD
S11308A05F4F3AF09E3F510578F00C94E8040C94A5
S11308B033055F3FE4F3983ED4F3869577956795C7
S11308C0B795F7959F5FC9F7880F911D9695879502
S11308D097F90895E1E0660F771F881FBB1F621721
S11308E073078407BA0720F0621B730B840BBA0BDF
S11308F0EE1F88F7E09508950E94180588F09F5729
S113090098F0B92F9927B751B0F0E1F0660F771F2F
S1130910881F991F1AF0BA95C9F714C0B13091F025
S11309200E943205B1E008950C943205672F782FA8
S11309308827B85F39F0B93FCCF3869577956795EA
S1130940B395D9F73EF490958095709561957F4F56
S11309508F4F9F4F0895E89409C097FB3EF49095FC
S11309608095709561957F4F8F4F9F4F9923A9F084
S1130970F92F96E9BB279395F69587957795679513
S1130980B795F111F8CFFAF4BB0F11F460FF1BC057
S11309906F5F7F4F8F4F9F4F16C0882311F096E9EA
S11309A011C0772321F09EE8872F762F05C0662398
S11309B071F096E8862F70E060E02AF09A95660F51
S11309C0771F881FDAF7880F9695879597F908950A
S11309D097F99F6780E870E060E008959FEF80ECEE
S11309E0089500240A941616170618060906089591
S11309F000240A9412161306140605060895092EF7
S1130A000394000C11F4882352F0BB0F40F4BF2B65
S1130A1011F460FF04C06F5F7F4F8F4F9F4F0895A5
S1130A2057FD9058440F551F59F05F3F71F047959B
S1130A30880F97FB991F61F09F3F79F08795089580
S1130A40121613061406551FF2CF4695F1DF08C09F
S1130A50161617061806991FF1CF869571056105BC
S1130A6008940895E894BB2766277727CB0197F964
S1130A7008950E94AB0508F48FEF08950E94510574
S1130A800C94FF040E94F10438F00E94F80420F052
S1130A90952311F00C94E8040C94EE0411240C94A6
S1130AA033050E94100570F3959FC1F3950F50E034
S1130AB0551F629FF001729FBB27F00DB11D639F0C
S1130AC0AA27F00DB11DAA1F649F6627B00DA11DB2
S1130AD0661F829F2227B00DA11D621F739FB00D58
S1130AE0A11D621F839FA00D611D221F749F3327C8
S1130AF0A00D611D231F849F600D211D822F762F61
S1130B006A2F11249F5750409AF0F1F088234AF03D
S1130B10EE0FFF1FBB1F661F771F881F91505040A9
S1130B20A9F79E3F510580F00C94E8040C9433051A
S1130B305F3FE4F3983ED4F3869577956795B79530
S1130B40F795E7959F5FC1F7FE2B880F911D96954A
S1130B50879597F90895990F0008550FAA0BE0E8B7
S1130B60FEEF16161706E807F907C0F0121613066B
S1130B70E407F50798F0621B730B840B950B39F4AB
S1130B800A2661F0232B242B252B21F408950A2611
S1130B9009F4A140A6958FEF811D811D0895F89455
S1050BA0FFCF81
S1130BA20000404000004040017E0CB69ECCDAFAC0
S1070BB24EFEDE0011
S9030000FC
