:100000000C943E000C945B000C945B000C945B0021
:100010000C94B9030C945B000C9455040C945B0095
:100020000C945B000C945B000C949F010C945B009F
:100030000C945B000C945B000C945B000C945B00D4
:100040000C945B000C945B000C945B000C945B00C4
:100050000C945B000C945B000C945B000C945B00B4
:100060000C945B000C945B000C945B000C945B00A4
:100070000C945B000C945B000C945B0011241FBE7D
:10008000CFEFCDBFDFE3DEBF18E3A0E0B8E3E2E9E6
:10009000FEE002C005900D92AE30B107D9F728E31B
:1000A000AEE0B8E301C01D92A832B207E1F70E94AA
:1000B000D2040C9447070C940000CF92DF92EF9289
:1000C000FF92CF93DF931092310484B1826084B9A0
:1000D00085B18D7F85B98DE18093060681E080939F
:1000E0000806809108068111FCCFC8E0D6E018828E
:1000F000609110067091110680E090E00E94140655
:100100006B017C019B01AC016AE979EA8CE894E41B
:100110000E9473056093193870931A3880931B38C6
:1001200090931C3884B18D7F84B98AE08093060651
:1001300081E08883809108068111FCCF1092080627
:10014000609110067091110689E08093310480E07F
:1001500090E00E9414062DEC3CEC4CE85FE30E941A
:10016000CB06A70196010E9473056B017C01609389
:1001700015387093163880931738909318382AE9F9
:1001800039E949E95FE30E94C606181624F0809118
:100190001338882321F083E08093013811C020E0D8
:1001A00030E040E05FE3C701B6010E94C6061816C2
:1001B00024F482E08093013803C081E08093013809
:1001C000DF91CF91FF90EF90DF90CF9008950F9344
:1001D0001F93CF93DF938C01C0E0D0E079C03199B9
:1001E00070C080EA9FE080932038909321388091FE
:1001F0000338823001F18330D9F1813009F061C0D8
:10020000319BFECF80911D38882319F010921D3844
:1002100058C00E945D0088EC8093143880E293E01F
:10022000809320389093213887EA91E60197F1F77F
:1002300000C0000046C0319BFECF80911D3888234E
:1002400019F010921D383DC0809126388F5F809341
:100250002638883110F01092263880912638809305
:10026000243887EA91E60197F1F700C0000029C021
:10027000319BFECF80911D38882319F010921D38D4
:1002800020C0809127388F5F809327388C3358F0B7
:1002900010922738809126388F5F809326388831D6
:1002A00010F010922638809126388093243880915F
:1002B00027388093253887EA91E60197F1F700C047
:1002C000000089EF90E00197F1F700C0000021964F
:1002D000C017D10708F483CFDF91CF911F910F9101
:1002E000089581B1817081B989B18E7F89B985B155
:1002F0008F7C85B989B1817F89B90895882319F0E8
:1003000080930338089580910338833021F481E08D
:100310008093033808958F5F809303380895809108
:10032000243880932638809125388093273810927E
:1003300048011092490181E08093003808951F928E
:100340000F920FB60F921124EF92FF920F931F930B
:100350002F933F934F935F936F937F938F939F93CD
:10036000AF93BF93CF93DF93EF93FF931092200A45
:100370001092210AEBE0FAE0808180618083809115
:10038000203890912138892B19F40E947101DAC12B
:1003900080911438882309F46FC08091033881302C
:1003A00009F06AC020E030E040E251E46091193881
:1003B00070911A3880911B3890911C380E94CB069E
:1003C0000E94E505C62F20E030E040E251E4609154
:1003D00015387091163880911738909118380E940E
:1003E000CB060E94E5058DECC89FE12D1124E69512
:1003F000E695E6952E2F220F922F990F990F920FC7
:10040000C91BAC2FB0E0AC5FB74CCC91E89F912DED
:100410001124969596959695990F292F220F220FC4
:10042000920FE91BF0E0EC5FF74CD081689FE12D63
:100430001124E695E695E6952E2F220F922F990F1F
:10044000990F920F691BA62FB0E0AC5FB74C0C91CF
:10045000E89F812D1124869586958695880F982F83
:10046000990F990F890FE81BF0E0EC5FF74CF080D3
:10047000EE24E39410E04FC0C0912538EDECCE9F00
:10048000A12D1124A695A695A6959A2F990F892F8F
:10049000880F880F890FC81BD0E0CC5FD74CC8816C
:1004A000AE9F812D1124869586958695880F982F6D
:1004B000990F990F890FA81BB0E0AC5FB74CDC9186
:1004C00010911238A0912438AE9F812D1124869569
:1004D00086958695282F220F922F990F990F920FAC
:1004E000A91BB0E0AC5FB74C0C918E9FE12D11249D
:1004F000E695E695E695EE0F9E2F990F990FE90F79
:100500008E1B39F0E82FF0E0EC5FF74CF080E12C27
:1005100002C0E12CF12C809103388230A9F4809143
:1005200010389091113801968093103890931138BB
:10053000811522E0920720F18115944030F110924C
:1005400010381092113821C08330A9F480911038EE
:10055000909111380196809310389093113881153D
:1005600022E0920780F08115944078F010921038C4
:10057000109211380AC0109210381092113805C02C
:10058000F12C00E002C0D0E0C0E00E947101809137
:100590000F388F5F80930F38883010F010920F382B
:1005A00080910138813031F480910F38837071F07F
:1005B00080E011C0823031F480910F3880FD08C096
:1005C00080E009C0833031F080E005C081E003C0E5
:1005D00081E001C081E0882379F180910E3882307A
:1005E000C9F028F4882341F0813059F025C08330C8
:1005F000B1F08430C9F020C085B1806185B9C1B93E
:100600001BC089B1886089B9D1B989B18E7FE82AC8
:10061000E9B812C085B1806285B911B90DC089B140
:10062000846089B901B908C089B1826089B9F1B81B
:1006300089B18E7FE82AE9B880910E388F5F809368
:100640000E38853009F07EC010920E388091480136
:100650009091490180FF04C080910338813021F0DE
:1006600086E08093123802C01092123840914801FF
:10067000509149019A01A9E8B8E80E94380700247E
:10068000880F991F001C880F991F001C892F902D1F
:1006900068E7689F9001699F300D11244217530746
:1006A000F1F48091003881111CC081E08093003802
:1006B000809125388F5F809325388C3340F090915E
:1006C00024389F5F909324388C53809325388091F1
:1006D0002438883130F088518093243802C0109239
:1006E00000388091203890912138009729F00197A7
:1006F000809320389093213880911438882319F002
:10070000815080931438319B05C010921E3810928E
:100710001F3818C080911E3890911F380196809321
:100720001E3890931F38813B944060F010921E3821
:1007300010921F380E948F0180E00E947E0181E0AC
:1007400080931D38FF91EF91DF91CF91BF91AF91D1
:100750009F918F917F916F915F914F913F912F91D9
:100760001F910F91FF90EF900F900FBE0F901F9071
:1007700018951F920F920FB60F9211242F933F934B
:100780004F935F936F937F938F939F93AF93BF9399
:10079000CF93DF93EF93FF93E9E2F4E080818260EF
:1007A0008083309B6FC0309B6DC08091023888235E
:1007B00021F0109202380E945D0040912038509143
:1007C00021384115510509F054C0C8E4D1E0288111
:1007D0003981A9E8B8E80E943807FC010024EE0F2F
:1007E000FF1F001CEE0FFF1F001CEF2FF02DE093EA
:1007F00023380990D881C02D9E010E94380700241B
:10080000880F991F001C880F991F001C892F902D9D
:1008100068E7689F9001699F300D1124CE01821B0B
:10082000930B8093223889E8E89F812D11248295CB
:100830008695877020912638280F209324389E2F84
:100840003CE3839F90191124892F90912738890FB9
:10085000809325388C3330F02F5F209324388C53CD
:100860008093253880912438883118F088518093FE
:1008700024384032534030F480E293E080932038B3
:1008800090932138FF91EF91DF91CF91BF91AF917C
:100890009F918F917F916F915F914F913F912F9198
:1008A0000F900FBE0F901F9018951F920F920FB6CA
:1008B0000F9211242F933F934F935F936F937F93E6
:1008C0008F939F93AF93BF93EF93FF931092480141
:1008D00010924901E3E4F1E080818260808380919D
:1008E0000338813051F480912638875F8093263811
:1008F000883118F088518093263880912038909163
:100900002138892B09F03DC00E945D0060911938A3
:1009100070911A3880911B3890911C382AE939E976
:1009200049ED5FE30E946E05181694F088EDA895D6
:1009300084BF80910001816080930001809101015A
:1009400081FDFCCF87EA91E60197F1F700C0000036
:100950006091193870911A3880911B3890911C3829
:1009600026E636E646EA50E40E94C60688234CF0A6
:1009700080E594E1809320389093213881E0809342
:100980001338FF91EF91BF91AF919F918F917F911C
:100990006F915F914F913F912F910F900FBE0F90EC
:1009A0001F90189588ED84BF1092600084BF97E077
:1009B000909361009FEF90B92CEF24B998B911B8CA
:1009C00015B819B891E09093300428E020933104D1
:1009D00084BF90937C0082E0809342018093470122
:1009E0008091410180FDFCCF81EF809340018FE138
:1009F0009DEF80934C0190934D011092480110920D
:100A000049018DE08093000A1092010A81E090E094
:100A10008093280A9093290A80E180930A0A91E042
:100A2000909300061092010695E59093020680933C
:100A3000A000E0E5F0E08081897F826080830E94F1
:100A40008F0181EE94E00197F1F700C000007894E7
:100A500023C00E945D006091193870911A3880910E
:100A60001B3890911C3823E333E343EA50E40E949F
:100A70006E0588233CF4109213381092203810929F
:100A800021380EC088EB9BE00E94E70080E594E1EE
:100A90008093203890932138809113388111D9CFD9
:100AA0008091203890912138892B99F40E9471010E
:100AB00081E00E947E011092143881E08093023818
:100AC000E0E5F0E0808181608083889580818E7F81
:100AD000808385E090E00E94E700DECF0E9451060F
:100AE00008F481E008950E9487050C948C060E940A
:100AF000850658F00E947E0640F029F45F3F29F0F9
:100B00000C94750651110C94C0060C947B060E943F
:100B10009D0668F39923B1F3552391F3951B550B6B
:100B2000BB27AA2762177307840738F09F5F5F4FC0
:100B3000220F331F441FAA1FA9F335D00E2E3AF0FF
:100B4000E0E832D091505040E695001CCAF72BD017
:100B5000FE2F29D0660F771F881FBB1F2617370768
:100B60004807AB07B0E809F0BB0B802DBF01FF279A
:100B700093585F4F3AF09E3F510578F00C947506FC
:100B80000C94C0065F3FE4F3983ED4F386957795C6
:100B90006795B795F7959F5FC9F7880F911D969553
:100BA000879597F90895E1E0660F771F881FBB1FAF
:100BB000621773078407BA0720F0621B730B840B5C
:100BC000BA0BEE1F88F7E09508950E94A50688F0FD
:100BD0009F5798F0B92F9927B751B0F0E1F0660F01
:100BE000771F881F991F1AF0BA95C9F714C0B13042
:100BF00091F00E94BF06B1E008950C94BF06672FE4
:100C0000782F8827B85F39F0B93FCCF38695779570
:100C10006795B395D9F73EF4909580957095619559
:100C20007F4F8F4F9F4F0895E89409C097FB3EF484
:100C300090958095709561957F4F8F4F9F4F992329
:100C4000A9F0F92F96E9BB279395F69587957795A7
:100C50006795B795F111F8CFFAF4BB0F11F460FF67
:100C60001BC06F5F7F4F8F4F9F4F16C0882311F0BF
:100C700096E911C0772321F09EE8872F762F05C0D3
:100C8000662371F096E8862F70E060E02AF09A956E
:100C9000660F771F881FDAF7880F9695879597F963
:100CA0000895990F0008550FAA0BE0E8FEEF1616FD
:100CB0001706E807F907C0F012161306E407F50750
:100CC00098F0621B730B840B950B39F40A2661F0C4
:100CD000232B242B252B21F408950A2609F4A14067
:100CE000A6958FEF811D811D089597F99F6780E874
:100CF00070E060E008959FEF80EC089500240A946E
:100D00001616170618060906089500240A941216E6
:100D10001306140605060895092E0394000C11F419
:100D2000882352F0BB0F40F4BF2B11F460FF04C0C6
:100D30006F5F7F4F8F4F9F4F089557FD9058440F1F
:100D4000551F59F05F3F71F04795880F97FB991F2A
:100D500061F09F3F79F087950895121613061406E7
:100D6000551FF2CF4695F1DF08C016161706180674
:100D7000991FF1CF86957105610508940895E8944F
:100D8000BB2766277727CB0197F908950E94510664
:100D900008F48FEF08950E94DE060C948C060E94E2
:100DA0007E0638F00E94850620F0952311F00C9401
:100DB00075060C947B0611240C94C0060E949D06B7
:100DC00070F3959FC1F3950F50E0551F629FF0019E
:100DD000729FBB27F00DB11D639FAA27F00DB11DB7
:100DE000AA1F649F6627B00DA11D661F829F222740
:100DF000B00DA11D621F739FB00DA11D621F839FC7
:100E0000A00D611D221F749F3327A00D611D231F9C
:100E1000849F600D211D822F762F6A2F11249F57EA
:100E200050409AF0F1F088234AF0EE0FFF1FBB1FED
:100E3000661F771F881F91505040A9F79E3F5105AC
:100E400080F00C9475060C94C0065F3FE4F3983E66
:100E5000D4F3869577956795B795F795E7959F5F56
:100E6000C1F7FE2B880F911D9695879597F90895E8
:100E7000A29FB001B39FC001A39F700D811D1124DB
:100E8000911DB29F700D811D1124911D0895F8943C
:020E9000FFCF92
:0E0E9200010301017E0CB69ECCDAFA4EFEDEA4
:00000001FF
