S013000057696E646F77436C6F636B2E73726563AD
S11300000C943E000C945B000C945B000C945B001D
S11300100C949D040C945B000C942B050C945B00D5
S11300200C945B000C945B000C943B020C945B00FE
S11300300C945B000C945B000C945B000C945B00D0
S11300400C945B000C945B000C945B000C945B00C0
S11300500C945B000C945B000C945B000C945B00B0
S11300600C945B000C945B000C945B000C945B00A0
S11300700C945B000C945B000C945B0011241FBE79
S1130080CFEFCDBFDFE3DEBF18E3A0E0B8E3E0E7E6
S1130090F0E102C005900D92A431B107D9F728E32D
S11300A0A4E1B8E301C01D92A633B207E1F70E94B0
S11300B0A8050C9436080C940000CF92DF92EF92BE
S11300C0FF92CF93DF931092310484B1826084B99C
S11300D085B18D7F85B98DE18093060681E080939B
S11300E00806809108068111FCCFC8E0D6E018828A
S11300F0609110067091110680E090E00E94EF0676
S11301006B017C019B01AC016AE979EA8CE894E417
S11301100E944E066093293870932A3880932B38B6
S113012090932C3884B18D7F84B98AE0809306063D
S113013081E08883809108068111FCCF1092080623
S1130140609110067091110689E08093310480E07B
S113015090E00E94EF062DEC3CEC4CE85FE30E943B
S1130160A607A70196010E944E066B017C016093CD
S1130170253870932638809327389093283826E6BC
S113018036E646EE5FE30E94A107181624F080913C
S11301902338882321F086E0809306383BC02AE97F
S11301A039E949E95FE3C701B6010E94A1071816BE
S11301B024F485E0809306382DC02DEC3CEC4CE40F
S11301C05FE3C701B6010E94A107181624F484E076
S11301D0809306381FC020E030E040E05FE3C701B1
S11301E0B6010E94A107181624F483E08093063810
S11301F011C02AE939E949E95EE3C701B6010E9461
S1130200A107181624F482E08093063803C081E025
S11302108093063820E030E040E251E460912938D0
S113022070912A3880912B3890912C380E94A6071F
S11302300E94C006C62F20E030E040E251E4C7012E
S1130240B6010E94A6070E94C0068DECC89FE12D4E
S11302501124E695E695E6952E2F220F922F990FFD
S1130260990F920FC91BAC2FB0E0A75FB74C9C91BC
S113027090932138E89F912D112496959695969503
S1130280990F292F220F220F920FE91BF0E0E75F4D
S1130290F74C908190932038689FE12D1124E695C6
S11302A0E695E6952E2F220F922F990F990F920F14
S11302B0691BA62FB0E0A75FB74C9C9190931F38A1
S11302C0E89F812D1124869586958695880F982F11
S11302D0990F990F890FE81BF0E0E75FF74C8081D5
S11302E080931E38DF91CF91FF90EF90DF90CF90F5
S11302F008950F931F93CF93DF938C01C0E0D0E058
S113030079C0319970C088E893E180933038909334
S1130310313880910838823001F18330D9F181304D
S113032009F061C0319BFECF80912D38882319F0EC
S113033010922D3858C00E945D008FEF80932438AE
S113034088EE93E0809330389093313887EA91E6D1
S11303500197F1F700C0000046C0319BFECF8091A9
S11303602D38882319F010922D383DC080913438EF
S11303708F5F80933438883110F010923438809134
S113038034388093323887EA91E60197F1F700C058
S1130390000029C0319BFECF80912D38882319F0AD
S11303A010922D3820C0809135388F5F8093353876
S11303B08C3358F010923538809134388F5F8093A5
S11303C03438883110F01092343880913438809366
S11303D03238809135388093333887EA91E6019733
S11303E0F1F700C0000089EF90E00197F1F700C039
S11303F000002196C017D10708F483CFDF91CF9175
S11304001F910F91089581B1817081B989B1807F65
S113041089B985B18F7C85B90895882319F08093B3
S11304200838089580910838833021F481E080935E
S1130430083808958F5F80930838089580910338B1
S1130440882349F01092323810923438109233389D
S11304501092353808C080913238809334388091B6
S1130460333880933538109248011092490181E065
S11304708093053808951F920F920FB60F9211249E
S1130480EF92FF920F931F932F933F934F935F939A
S11304906F937F938F939F93AF93BF93CF93DF9388
S11304A0EF93FF931092200A1092210AEBE0FAE0F6
S11304B08081806180838091303890913138892B9C
S11304C019F40E94030222C280912438882381F007
S11304D080910838813061F4C0912138D09120385E
S11304E010911F3800911E38FF24F394E12C8FC023
S11304F080910338882329F080910838813009F4E9
S11305007DC080910238C09133388C1307C090911C
S1130510013880913238981709F464C0C0930238C6
S1130520809132388093013890910438992339F0BE
S1130530882321F08D3018F08C5001C08CE0EDEC54
S1130540CE9FA12D1124A695A695A6952A2F220FFC
S1130550922F990F990F920FC91BD0E0C75FD74C08
S1130560C881C0931D38AE9F912D11249695969500
S11305709695990F292F220F220F920FA91BB0E0F5
S1130580A75FB74CDC91D0931C388E9F912D11241A
S1130590969596959695392F330F232F220F220F78
S11305A0230F821BA82FB0E0A75FB74C1C911093B8
S11305B01B389E9FE12D1124E695E695E695EE0FF6
S11305C08E2F880F880FE80F9E1B21F410921A3883
S11305D000E010C0E92FF0E0E75FF74C00810093E2
S11305E01A3808C0C0911D38D0911C3810911B389E
S11305F000911A38E0901938F12C09C0F12C00E868
S113060010E80F2EF6E0EF2EF02DD0E8C0E8809130
S113061008388230A9F480911738909118380196DF
S11306208093173890931838811522E0920720F1AF
S11306308115944030F1109217381092183821C067
S11306408330A9F4809117389091183801968093DB
S1130650173890931838811522E0920780F081159D
S1130660944078F010921738109218380AC01092FB
S113067017381092183805C000E010E002C0D0E02E
S1130680C0E00E940302809100388F5F809300389D
S1130690893118F081E080930038809106388330E6
S11306A019F128F4813051F0823091F005C0853081
S11306B071F1F8F0863089F180E044C0809100380F
S11306C0883069F1803169F1883169F180E03AC09C
S11306D080910038863049F18C3049F1823149F1FA
S11306E0883149F180E02EC080910038837029F56B
S11306F029C0909100388BEA989F812D112486950A
S1130700282F220F820F98131AC080E01BC08091FB
S1130710003880FD16C080E015C081E013C081E080
S113072011C081E00FC081E00DC081E00BC081E009
S113073009C081E007C081E005C081E003C081E019
S113074001C081E08823B9F1809116388230E9F044
S113075028F4882341F0813059F02DC08330D1F042
S11307608430E9F028C085B1806185B9C1B923C05E
S113077089B1886089B9D1B9809124388823D9F0A6
S113078089B18E7FF82AF9B816C085B1806285B91F
S1130790E1B811C089B1846089B911B90CC089B1BB
S11307A0826089B901B980912438882321F089B104
S11307B08E7FF82AF9B8809116388F5F80931638A7
S11307C0853009F0A3C0109216388091480180FF4B
S11307D004C080910838813021F086E08093193874
S11307E002C010921938209148013091490180913A
S11307F01438909115382817390709F441C0E8E4F2
S1130800F1E0808191818093143890931538408170
S113081051819A01A9E8B8E80E9427080024880FAA
S1130820991F001C880F991F001C892F902D68E7C1
S1130830689F9001699F300D112442175307F1F40A
S11308408091053881111CC081E080930538809126
S113085033388F5F809333388C3340F09091323843
S11308609F5F909332388C53809333388091323821
S1130870883130F088518093323802C010920538A4
S11308808091303890913138009729F00197809306
S113089030389093313880912438882319F081506E
S11308A080932438319B05C010922E3810922F3833
S11308B02DC080912E3890912F38019680932E3838
S11308C090932F38813B944008F110922E38109267
S11308D02F380E941E0280E00E940D0281E0809366
S11308E02D381092033880910838823079F4809141
S11308F022388F5F80932238833028F01092223878
S11309001092043803C081E080930438FF91EF9182
S1130910DF91CF91BF91AF919F918F917F916F9113
S11309205F914F913F912F911F910F91FF90EF9005
S11309300F900FBE0F901F9018951F920F920FB635
S11309400F9211242F933F934F935F936F937F9351
S11309508F939F93AF93BF93CF93DF93EF93FF93C3
S1130960E9E2F4E0808182608083309B61C0309B47
S11309705FC080910738882321F0109207380E94C5
S11309805D00E0913038F0913138309709F047C07C
S113099040914801509149019A01A9E8B8E80E94A0
S11309A02708EC010024CC0FDD1F001CCC0FDD1F39
S11309B0001CCD2FD02DCA0160E27CE10E941308F7
S11309C040913438460F409332389E01A9E8B8E884
S11309D00E94270896958795929582958F7089270E
S11309E09F7089275CE3589F9001599F300D112413
S11309F0CE01821B930B90913538890F8093333845
S1130A008C3330F04F5F409332388C5380933338BB
S1130A1080913238883118F0885180933238E83E1A
S1130A20F34030F488EE93E080933038909331387B
S1130A30FF91EF91DF91CF91BF91AF919F918F91F2
S1130A407F916F915F914F913F912F910F900FBEC6
S1130A500F901F9018951F920F920FB60F921124AA
S1130A602F933F934F935F936F937F938F939F93B2
S1130A70AF93BF93EF93FF931092480110924901F3
S1130A80E3E4F1E0808182608083809108388130E2
S1130A9051F480913438875F80933438883118F06A
S1130AA08851809334388091303890913138892B33
S1130AB009F03DC00E945D006091293870912A3888
S1130AC080912B3890912C382AE939E949ED5FE37C
S1130AD00E944906181694F088EDA89584BF809169
S1130AE000018160809300018091010181FDFCCFB0
S1130AF087EA91E60197F1F700C000006091293878
S1130B0070912A3880912B3890912C3826E636E65D
S1130B1046EA50E40E94A10788234CF088E59BE153
S1130B20809330389093313881E080932338FF915B
S1130B30EF91BF91AF919F918F917F916F915F9151
S1130B404F913F912F910F900FBE0F901F901895CA
S1130B5088ED84BF1092600084BF97E09093610099
S1130B609FEF90B92CEF24B998B911B815B819B8FA
S1130B7091E09093300428E02093310484BF909353
S1130B807C0082E08093420180934701809141017F
S1130B9080FDFCCF81EF809340018FE19DEF809336
S1130BA04C0190934D0110924801109249018DE03F
S1130BB08093000A1092010A81E090E08093280A51
S1130BC09093290A80E180930A0A91E090930006A9
S1130BD01092010695E5909302068093A000E0E54B
S1130BE0F0E08081897F8260808381EE94E00197C8
S1130BF0F1F700C00000789423C00E945D0060916A
S1130C00293870912A3880912B3890912C3823E31D
S1130C1033E343EA50E40E94490688233CF41092EB
S1130C20233810923038109231380EC088EB9BE094
S1130C300E94790188E59BE18093303890933138A4
S1130C40809123388111D9CF8091303890913138F7
S1130C50892BD1F40E94030281E00E940D021092BC
S1130C60243881E080930738109222388FEF8093E4
S1130C70013880930238E0E5F0E080818160808370
S1130C80889580818E7F808385E090E00E94790141
S1130C90D7CF0E942C0708F481E008950E946206D1
S1130CA00C9467070E94600758F00E94590740F0AF
S1130CB029F45F3F29F00C94500751110C949B07C1
S1130CC00C9456070E94780768F39923B1F35523CF
S1130CD091F3951B550BBB27AA276217730784074B
S1130CE038F09F5F5F4F220F331F441FAA1FA9F3E1
S1130CF035D00E2E3AF0E0E832D091505040E695CF
S1130D00001CCAF72BD0FE2F29D0660F771F881F2F
S1130D10BB1F261737074807AB07B0E809F0BB0B22
S1130D20802DBF01FF2793585F4F3AF09E3F510536
S1130D3078F00C9450070C949B075F3FE4F3983EC3
S1130D40D4F3869577956795B795F7959F5FC9F71F
S1130D50880F911D9695879597F90895E1E0660FA0
S1130D60771F881FBB1F621773078407BA0720F019
S1130D70621B730B840BBA0BEE1F88F7E095089582
S1130D800E94800788F09F5798F0B92F9927B75190
S1130D90B0F0E1F0660F771F881F991F1AF0BA951B
S1130DA0C9F714C0B13091F00E949A07B1E00895D8
S1130DB00C949A07672F782F8827B85F39F0B93FCA
S1130DC0CCF3869577956795B395D9F73EF49095CE
S1130DD08095709561957F4F8F4F9F4F0895E8944C
S1130DE009C097FB3EF490958095709561957F4F6F
S1130DF08F4F9F4F9923A9F0F92F96E9BB2793951D
S1130E00F695879577956795B795F111F8CFFAF42C
S1130E10BB0F11F460FF1BC06F5F7F4F8F4F9F4F5D
S1130E2016C0882311F096E911C0772321F09EE8BB
S1130E30872F762F05C0662371F096E8862F70E021
S1130E4060E02AF09A95660F771F881FDAF7880FFB
S1130E509695879597F90895990F0008550FAA0B51
S1130E60E0E8FEEF16161706E807F907C0F01216B9
S1130E701306E407F50798F0621B730B840B950BBC
S1130E8039F40A2661F0232B242B252B21F4089511
S1130E900A2609F4A140A6958FEF811D811D0895AE
S1130EA097F99F6780E870E060E008959FEF80EC19
S1130EB0089500240A9416161706180609060895BC
S1130EC000240A9412161306140605060895092E22
S1130ED00394000C11F4882352F0BB0F40F4BF2B91
S1130EE011F460FF04C06F5F7F4F8F4F9F4F0895D1
S1130EF057FD9058440F551F59F05F3F71F04795C7
S1130F00880F97FB991F61F09F3F79F087950895AB
S1130F10121613061406551FF2CF4695F1DF08C0CA
S1130F20161617061806991FF1CF869571056105E7
S1130F3008940895E894BB2766277727CB0197F98F
S1130F4008950E942C0708F48FEF08950E94B907B2
S1130F500C9467070E94590738F00E94600720F03C
S1130F60952311F00C9450070C94560711240C94FB
S1130F709B070E94780770F3959FC1F3950F50E08B
S1130F80551F629FF001729FBB27F00DB11D639F37
S1130F90AA27F00DB11DAA1F649F6627B00DA11DDD
S1130FA0661F829F2227B00DA11D621F739FB00D83
S1130FB0A11D621F839FA00D611D221F749F3327F3
S1130FC0A00D611D231F849F600D211D822F762F8C
S1130FD06A2F11249F5750409AF0F1F088234AF069
S1130FE0EE0FFF1FBB1F661F771F881F91505040D5
S1130FF0A9F79E3F510580F00C9450070C949B0771
S11310005F3FE4F3983ED4F3869577956795B7955B
S1131010F795E7959F5FC1F7FE2B880F911D969575
S1131020879597F90895AA1BBB1B51E107C0AA1F16
S1131030BB1FA617B70710F0A61BB70B881F991F75
S11310405A95A9F780959095BC01CD010895A29F6A
S1131050B001B39FC001A39F700D811D1124911D88
S1131060B29F700D811D1124911D0895F894FFCF36
S113107001FFFF0101010601017E0CB69ECCDAFAE4
S10710804EFEDE003E
S9030000FC
