:100000000C943E000C945B000C945B000C945B0021
:100010000C9497010C945B000C94CF010C945B0042
:100020000C945B000C945B000C9498000C945B00A7
:100030000C945B000C945B000C945B000C945B00D4
:100040000C945B000C945B000C945B000C945B00C4
:100050000C945B000C945B000C945B000C945B00B4
:100060000C945B000C945B000C945B000C945B00A4
:100070000C945B000C945B000C945B0011241FBE7D
:10008000CFEFCDBFDFE3DEBF18E3A0E0B8E3EAE8DF
:10009000F7E002C005900D92A031B107D9F728E32F
:1000A000A0E1B8E301C01D92AA31B207E1F70E94B6
:1000B0001A020C94C3030C9400008DE18093060691
:1000C00081E080930806809108068111FCCF109290
:1000D0000806609110067091110680E090E00E9481
:1000E00035039B01AC016AE979EA8CE894E40E944B
:1000F000C302089581B1817081B989B18E7F89B9B8
:1001000085B18F7C85B989B1817F89B908958823AC
:1001100019F080930438089580910438833021F4D5
:1001200081E08093043808958F5F809304380895A8
:100130001F920F920FB60F9211240F931F932F93BC
:100140003F934F935F936F937F938F939F93AF935F
:10015000BF93CF93DF93EF93FF93809116389091E5
:100160001738892B19F40E947A00CCC01092200A0B
:100170001092210A80E180930B0AC0911938EDECAE
:10018000CE9FA12D1124A695A695A6959A2F990FDD
:10019000892F880F880F890FC81BD0E0CB5FD74C01
:1001A000C881AE9F812D1124869586958695880FEE
:1001B000982F990F990F890FA81BB0E0AB5FB74C30
:1001C000DC91A0911838AE9F812D112486958695DB
:1001D0008695282F220F922F990F990F920FA91B06
:1001E000B0E0AB5FB74C1C918E9FE12D1124E695DA
:1001F000E695E695EE0F9E2F990F990FE90F8E1B4E
:1002000031F0E82FF0E0EB5FF74C008101C000E037
:1002100080910438823041F4809111388F5F80934F
:100220001138882374F412C0833041F4809111385E
:100230008F5F8093113888233CF408C010921138E6
:1002400005C000E010E002C0D0E0C0E00E947A00EB
:10025000809110388230A9F028F4882341F0813051
:1002600059F01EC0833099F08430B1F019C085B1C7
:10027000806185B9C1B914C089B1886089B9D1B923
:100280000FC085B1806285B986E081B909C089B1A6
:10029000846089B911B904C089B1826089B901B992
:1002A000809110388F5F80931038853059F5109207
:1002B00010388091163890911738009729F00197DF
:1002C0008093163890931738319B05C010921438DC
:1002D0001092153817C080911438909115380196F6
:1002E00080931438909315388D32914058F01092C5
:1002F000143810921538109248011092490180E08C
:100300000E948700FF91EF91DF91CF91BF91AF9154
:100310009F918F917F916F915F914F913F912F911D
:100320001F910F910F900FBE0F901F9018951F9265
:100330000F920FB60F9211248F939F93EF93FF9319
:10034000E9E2F4E0808182608083319915C080E425
:1003500096E0809316389093173880910438823055
:1003600019F0833029F012C081E0809313380EC059
:1003700081E0809312380AC0309B08C0309B06C0D1
:1003800080E293E08093163890931738FF91EF91B5
:100390009F918F910F900FBE0F901F9018951F92F5
:1003A0000F920FB60F9211242F933F934F935F93A9
:1003B0006F937F938F939F93AF93BF93EF93FF932D
:1003C0001092480110924901E3E4F1E080818260DB
:1003D000808380910438813091F4809119388F5F47
:1003E000809319388C3358F010921938809118384E
:1003F0008F5F80931838883110F0109218380E945F
:100400005D006093003870930138809302389093B8
:100410000338FF91EF91BF91AF919F918F917F91A1
:100420006F915F914F913F912F910F900FBE0F9061
:100430001F90189588ED84BF1092600084BF9BE0E8
:10044000909361009FEF90B92CEF24B998B911B83F
:1004500015B819B891E09093300429E02093310445
:1004600084BF90937C0082E0809342018093470197
:100470008091410180FDFCCF89EF80934001109273
:100480004C0110924D018DE08093000A1092010AF8
:1004900081E090E08093280A9093290A80E180937C
:1004A0000A0A91E0909300061092010695E5909358
:1004B00002068093A000E0E5F0E08081897F826001
:1004C000808388E391E00197F1F7000078948091B0
:1004D000163890911738892B71F40E947A0081E0C8
:1004E0000E948700E0E5F0E080818160808388954C
:1004F00080818E7F8083809113388823C9F0109289
:100500001338319BFECF80910438823089F480917A
:1005100018388F5F80931838883110F0109218388F
:1005200089E698E10197F1F700C0000010921338B6
:1005300080911238882311F110921238319BFECF2E
:10054000809104388330D1F4809119388F5F809383
:1005500019388C3358F010921938809118388F5F01
:1005600080931838883110F01092183889E698E195
:100570000197F1F700C000001092123893E59A95A8
:10058000F1F70000A4CF0E94D7020C9489030E94C7
:10059000820358F00E947B0340F029F45F3F29F06A
:1005A0000C94720351110C94BD030C9478030E94B7
:1005B0009A0368F39923B1F3552391F3951B550BD7
:1005C000BB27AA2762177307840738F09F5F5F4F26
:1005D000220F331F441FAA1FA9F335D00E2E3AF065
:1005E000E0E832D091505040E695001CCAF72BD07D
:1005F000FE2F29D0660F771F881FBB1F26173707CE
:100600004807AB07B0E809F0BB0B802DBF01FF27FF
:1006100093585F4F3AF09E3F510578F00C94720367
:100620000C94BD035F3FE4F3983ED4F38695779531
:100630006795B795F7959F5FC9F7880F911D9695B8
:10064000879597F90895E1E0660F771F881FBB1F14
:10065000621773078407BA0720F0621B730B840BC1
:10066000BA0BEE1F88F7E0950895E89409C097FB50
:100670003EF490958095709561957F4F8F4F9F4F79
:100680009923A9F0F92F96E9BB279395F6958795BD
:1006900077956795B795F111F8CFFAF4BB0F11F480
:1006A00060FF1BC06F5F7F4F8F4F9F4F16C0882327
:1006B00011F096E911C0772321F09EE8872F762F5D
:1006C00005C0662371F096E8862F70E060E02AF09E
:1006D0009A95660F771F881FDAF7880F969587958A
:1006E00097F9089597F99F6780E870E060E00895B2
:1006F0009FEF80EC089500240A941616170618063A
:100700000906089500240A94121613061406050615
:100710000895092E0394000C11F4882352F0BB0FA6
:1007200040F4BF2B11F460FF04C06F5F7F4F8F4F09
:100730009F4F089557FD9058440F551F59F05F3F44
:1007400071F04795880F97FB991F61F09F3F79F0F3
:1007500087950895121613061406551FF2CF469575
:10076000F1DF08C0161617061806991FF1CF8695F7
:100770007105610508940895E894BB2766277727DB
:0A078000CB0197F90895F894FFCF1C
:10078A0000004040017E0CB69ECCDAFA4EFEDE0036
:00000001FF
