S013000057696E646F77436C6F636B2E73726563AD
S11300000C943E000C945B000C945B000C945B001D
S11300100C944B030C945B000C9484030C945B00D1
S11300200C945B000C945B000C945E010C945B00DC
S11300300C945B000C945B000C945B000C945B00D0
S11300400C945B000C945B000C945B000C945B00C0
S11300500C945B000C945B000C945B000C945B00B0
S11300600C945B000C945B000C945B000C945B00A0
S11300700C945B000C945B000C945B0011241FBE79
S1130080CFEFCDBFDFE3DEBF18E3A0E0B8E3ECECD5
S1130090FBE002C005900D92A631B107D9F728E321
S11300A0A6E1B8E301C01D92A132B207E1F70E94B4
S11300B0B3030C94E4050C940000CF92DF92EF920A
S11300C0FF92CF93DF938DE18093060681E08093C6
S11300D00806809108068111FCCFC8E0D6E018829A
S11300E0609110067091110680E090E00E94C004B7
S11300F06B017C019B01AC016AE979EA8CE894E428
S11301000E941F0460930638709307388093083860
S1130110909309381092310484B1826084B985B116
S11301208D7F85B986EA8A95F1F700C084B18D7F09
S113013084B98AE08093060681E08883809108066A
S11301408111FCCF1092080660911006709111067F
S113015089E08093310480E090E00E94C0042DEC9B
S11301603CEC4CE85FE30E945305A70196010E9412
S11301701F0460930238709303388093043890937B
S11301800538DF91CF91FF90EF90DF90CF900895E5
S11301900F931F93CF93DF938C01C0E0D0E067C02F
S11301A031995EC080E099E180931D3890931E38A8
S11301B080910A388230D1F0833089F1813009F09E
S11301C04FC0319BFECF80911A38882319F01092CA
S11301D01A3846C00E945D0088EC8093193887EA7B
S11301E091E60197F1F700C000003AC0319BFECFC1
S11301F080911A38882319F010921A3831C08091EE
S11302001F388F5F80931F38883110F010921F3889
S113021087EA91E60197F1F700C0000021C0319B05
S1130220FECF80911A38882319F010921A3818C01A
S1130230809120388F5F809320388C3388F010921F
S1130240203880911F388F5F80931F38883110F0D9
S113025010921F3887EA91E60197F1F700C0000079
S113026089EF90E00197F1F700C000002196C017D4
S1130270D10708F495CFDF91CF911F910F91089585
S113028081B1817081B989B18E7F89B985B18F7C43
S113029085B989B1817F89B90895882319F080933C
S11302A00A38089580910A38833021F481E08093DC
S11302B00A3808958F5F80930A3808951F920F9229
S11302C00FB60F921124AF92BF92CF92DF92EF92AA
S11302D0FF920F931F932F933F934F935F936F93CB
S11302E07F938F939F93AF93BF93CF93DF93EF93BA
S11302F0FF9380911D3890911E38892B19F40E9428
S11303004001AEC11092200A1092210A80E180932C
S11303100B0A80911938882309F46FC080910A3838
S1130320813009F06AC020E030E040E251E460919D
S113033006387091073880910838909109380E94E6
S113034053050E949104C62F20E030E040E251E4BE
S11303506091023870910338809104389091053887
S11303600E9453050E9491048DECC89FE12D112435
S1130370E695E695E6952E2F220F922F990F990F69
S1130380920FC91BAC2FB0E0A55FB74CCC91E89F8E
S1130390912D1124969596959695990F292F220FB4
S11303A0220F920FE91BF0E0E55FF74CD081689FC4
S11303B0E12D1124E695E695E6952E2F220F922F36
S11303C0990F990F920F691BA62FB0E0A55FB74C48
S11303D01C91E89F812D1124869586958695880F1A
S11303E0982F990F990F890FE81BF0E0E55FF74C00
S11303F00081BB24B394A12C55C0C0912038EDECEE
S1130400CE9FA12D1124A695A695A6959A2F990F56
S1130410892F880F880F890FC81BD0E0C55FD74C80
S1130420C881AE9F812D1124869586958695880F67
S1130430982F990F990F890FA81BB0E0A55FB74CAF
S1130440DC91A0911F38AE9F812D1124869586954D
S11304508695282F220F922F990F990F920FA91B7F
S1130460B0E0A55FB74C1C918E9FE12D1124E69559
S1130470E695E695EE0F9E2F990F990FE90F8E1BC7
S113048059F0E82FF0E0E55FF74C0081B12C0F2E16
S1130490F6E0AF2EF02D06C0B12C00E00F2EF6E0F2
S11304A0AF2EF02D80910A38823041F480911738B4
S11304B08F5F80931738882374F412C0833041F41B
S11304C0809117388F5F8093173888233CF408C0D5
S11304D01092173805C000E010E002C0D0E0C0E080
S11304E00E944001C0900238D0900338E090043854
S11304F0F09005382AE939E949E95FE3C701B60113
S11305000E944E05181624F483E08093003811C02D
S113051020E030E040E05FE3C701B6010E944E05F1
S1130520181624F482E08093003803C081E080939D
S11305300038809118388F5F80931838803110F01C
S11305401092183880910038833081F0823031F471
S11305508091183880FD0CC080E00FC0813051F4C8
S113056080911838837041F080E007C081E005C0B5
S113057081E003C080E001C081E08823A9F180917B
S113058016388230E1F028F4882341F0813071F08C
S11305902BC08330C9F08430F9F026C085B1806166
S11305A085B9C1B989B18E7F89B91EC089B1886006
S11305B089B9D1B989B18E7FB82AB9B815C085B1C6
S11305C0806285B9A1B810C089B1846089B911B9B4
S11305D089B18E7F89B908C089B1826089B901B9AE
S11305E089B18E7FB82AB9B8809116388F5F80930D
S11305F016388530A9F51092163880911D389091DF
S11306001E38009729F0019780931D3890931E3867
S113061080911938882319F0815080931938319BBF
S113062005C010921B3810921C381AC080911B38D8
S113063090911C38019680931B3890931C38813B11
S1130640944070F010921B3810921C38109248019C
S11306501092490180E00E944D0181E080931A3894
S1130660FF91EF91DF91CF91BF91AF919F918F91C6
S11306707F916F915F914F913F912F911F910F91B6
S1130680FF90EF90DF90CF90BF90AF900F900FBE90
S11306900F901F9018951F920F920FB60F9211246E
S11306A02F933F934F935F936F937F938F939F9376
S11306B0AF93BF93EF93FF93E9E2F4E0808182600C
S11306C08083309B10C0309B0EC080E89CE08093F8
S11306D01D3890931E3880910138882321F01092A0
S11306E001380E945D00FF91EF91BF91AF919F91FE
S11306F08F917F916F915F914F913F912F910F90C7
S11307000FBE0F901F9018951F920F920FB60F9265
S113071011248F93EF93FF93109248011092490193
S1130720E3E4F1E080818260808380910A38813043
S113073091F4809120388F5F809320388C3358F067
S11307401092203880911F388F5F80931F38883132
S113075010F010921F38FF91EF918F910F900FBE00
S11307600F901F90189588ED84BF1092600084BF8D
S113077097E0909361009FEF90B92CEF24B998B95A
S113078011B815B819B891E09093300428E020937B
S1130790310484BF90937C0082E080934201809373
S11307A047018091410180FDFCCF89EF8093400196
S11307B010924C0110924D018DE08093000A10922A
S11307C0010A81E090E08093280A9093290A80E14D
S11307D080930A0A91E0909300061092010695E531
S11307E0909302068093A000E0E5F0E08081897F89
S11307F08260808381EE94E00197F1F700C00000ED
S1130800789480911D3890911E38892B99F40E9418
S1130810400181E00E944D011092193881E08093DB
S11308200138E0E5F0E080818160808388958081F3
S11308308E7F808385E090E00E94C800E2CF0E9412
S113084033040C9414050E940D0558F00E9406050B
S113085040F029F45F3F29F00C94FD0451110C94ED
S113086048050C9403050E94250568F39923B1F308
S1130870552391F3951B550BBB27AA2762177307C2
S1130880840738F09F5F5F4F220F331F441FAA1F56
S1130890A9F335D00E2E3AF0E0E832D09150504012
S11308A0E695001CCAF72BD0FE2F29D0660F771FC0
S11308B0881FBB1F261737074807AB07B0E809F0A6
S11308C0BB0B802DBF01FF2793585F4F3AF09E3F2B
S11308D0510578F00C94FD040C9448055F3FE4F353
S11308E0983ED4F3869577956795B795F7959F5F6E
S11308F0C9F7880F911D9695879597F90895E1E0BA
S1130900660F771F881FBB1F621773078407BA0718
S113091020F0621B730B840BBA0BEE1F88F7E09573
S113092008950E942D0588F09F5798F0B92F9927B4
S1130930B751B0F0E1F0660F771F881F991F1AF0C6
S1130940BA95C9F714C0B13091F00E944705B1E0DF
S113095008950C944705672F782F8827B85F39F0DE
S1130960B93FCCF3869577956795B395D9F73EF45F
S113097090958095709561957F4F8F4F9F4F089507
S1130980E89409C097FB3EF4909580957095619525
S11309907F4F8F4F9F4F9923A9F0F92F96E9BB27DB
S11309A09395F695879577956795B795F111F8CF57
S11309B0FAF4BB0F11F460FF1BC06F5F7F4F8F4FC2
S11309C09F4F16C0882311F096E911C0772321F0B8
S11309D09EE8872F762F05C0662371F096E8862F50
S11309E070E060E02AF09A95660F771F881FDAF7A7
S11309F0880F9695879597F9089597F99F6780E8EA
S1130A0070E060E008959FEF80EC089500240A945C
S1130A101616170618060906089500240A941216D5
S1130A201306140605060895092E0394000C11F408
S1130A30882352F0BB0F40F4BF2B11F460FF04C0B5
S1130A406F5F7F4F8F4F9F4F089557FD9058440F0E
S1130A50551F59F05F3F71F04795880F97FB991F19
S1130A6061F09F3F79F087950895121613061406D6
S1130A70551FF2CF4695F1DF08C016161706180663
S1130A80991FF1CF86957105610508940895E8943E
S1130A90BB2766277727CB0197F908950E94C005E5
S1130AA008F48FEF08950E9466050C9414050E94C3
S1130AB0060538F00E940D0520F0952311F00C94E2
S1130AC0FD040C94030511240C9448050E9425058B
S1130AD070F3959FC1F3950F50E0551F629FF0018D
S1130AE0729FBB27F00DB11D639FAA27F00DB11DA6
S1130AF0AA1F649F6627B00DA11D661F829F22272F
S1130B00B00DA11D621F739FB00DA11D621F839FB5
S1130B10A00D611D221F749F3327A00D611D231F8B
S1130B20849F600D211D822F762F6A2F11249F57D9
S1130B3050409AF0F1F088234AF0EE0FFF1FBB1FDC
S1130B40661F771F881F91505040A9F79E3F51059B
S1130B5080F00C94FD040C9448055F3FE4F3983E48
S1130B60D4F3869577956795B795F795E7959F5F45
S1130B70C1F7FE2B880F911D9695879597F90895D7
S1130B80990F0008550FAA0BE0E8FEEF161617069A
S1130B90E807F907C0F012161306E407F50798F002
S1130BA0621B730B840B950B39F40A2661F0232B1B
S1130BB0242B252B21F408950A2609F4A140A69597
S10F0BC08FEF811D811D0895F894FFCF74
S1130BCC03010000404000004040017E0CB69ECC66
S1090BDCDAFA4EFEDE0011
S9030000FC
