:100000000C943E000C945B000C945B000C945B0021
:100010000C947A010C945B000C94B2010C945B007C
:100020000C945B000C945B000C947B000C945B00C4
:100030000C945B000C945B000C945B000C945B00D4
:100040000C945B000C945B000C945B000C945B00C4
:100050000C945B000C945B000C945B000C945B00B4
:100060000C945B000C945B000C945B000C945B00A4
:100070000C945B000C945B000C945B0011241FBE7D
:10008000CFEFCDBFDFE3DEBF18E3A0E0B8E3E8E0E9
:10009000F5E002C005900D92AC30B107D9F728E326
:1000A000ACE0B8E301C01D92A631B207E1F70E94AF
:1000B000E1010C9482020C94000081B1817081B93D
:1000C00089B18E7F89B985B18F7C85B989B1817FEE
:1000D00089B90895882319F0809300380895809194
:1000E0000038833021F481E08093003808958F5FD9
:1000F0008093003808951F920F920FB60F9211242B
:100100000F931F932F933F934F935F936F937F931F
:100110008F939F93AF93BF93CF93DF93EF93FF930F
:100120008091123890911338892B19F40E945D0048
:10013000CCC01092200A1092210A80E180930B0A11
:10014000C0911538EDECCE9FA12D1124A695A69552
:10015000A6959A2F990F892F880F880F890FC81B92
:10016000D0E0CF5FD74CC881AE9F812D11248695FA
:1001700086958695880F982F990F990F890FA81B40
:10018000B0E0AF5FB74CDC91A0911438AE9F812DE9
:100190001124869586958695282F220F922F990FE8
:1001A000990F920FA91BB0E0AF5FB74C1C918E9FC7
:1001B000E12D1124E695E695E695EE0F9E2F990F19
:1001C000990FE90F8E1B31F0E82FF0E0EF5FF74C4D
:1001D000008101C000E080910038823041F48091BC
:1001E0000D388F5F80930D38882374F412C08330EC
:1001F00041F480910D388F5F80930D3888233CF453
:1002000008C010920D3805C000E010E002C0D0E038
:10021000C0E00E945D0080910C388230A9F028F483
:10022000882341F0813059F01EC0833099F084302A
:10023000B1F019C085B1806185B9C1B914C089B167
:10024000886089B9D1B90FC085B1806285B986E06F
:1002500081B909C089B1846089B911B904C089B173
:10026000826089B901B980910C388F5F80930C3816
:10027000853059F510920C388091123890911338CE
:10028000009729F001978093123890931338319B8F
:1002900005C0109210381092113817C08091103894
:1002A00090911138019680931038909311388D32C7
:1002B000914058F010921038109211381092480165
:1002C0001092490180E00E946A00FF91EF91DF9156
:1002D000CF91BF91AF919F918F917F916F915F91DE
:1002E0004F913F912F911F910F910F900FBE0F9043
:1002F0001F9018951F920F920FB60F9211248F9393
:100300009F93EF93FF93E9E2F4E080818260808322
:10031000319915C080E496E0809312389093133899
:1003200080910038823019F0833029F012C081E0CA
:1003300080930F380EC081E080930E380AC0309B46
:1003400008C0309B06C080E293E0809312389093FF
:100350001338FF91EF919F918F910F900FBE0F90E7
:100360001F9018951F920F920FB60F9211248F9322
:10037000EF93FF931092480110924901E3E4F1E0FA
:1003800080818260808380910038813091F48091F7
:1003900015388F5F809315388C3358F010921538CC
:1003A000809114388F5F80931438883110F0109248
:1003B0001438FF91EF918F910F900FBE0F901F9007
:1003C000189588ED84BF1092600084BF9BE09093E5
:1003D00061009FEF90B92CEF24B998B911B815B806
:1003E00019B891E09093300429E02093310484BF40
:1003F00090937C0082E0809342018093470180913A
:10040000410180FDFCCF89EF809340018BE390E0B8
:1004100080934C0190934D018DE08093000A1092DF
:10042000010A81E090E08093280A9093290A80E1F4
:1004300080930A0AE0E5F0E08081897F8260808312
:1004400088E391E00197F1F70000789480911238E9
:1004500090911338892B71F40E945D0081E00E9415
:100460006A00E0E5F0E0808181608083889580818A
:100470008E7F808380910F388823C9F010920F38C7
:10048000319BFECF80910038823089F480911438FE
:100490008F5F80931438883110F01092143889E6F9
:1004A00098E10197F1F700C0000010920F38809199
:1004B0000E38882311F110920E38319BFECF8091B7
:1004C00000388330D1F4809115388F5F80931538D0
:1004D0008C3358F010921538809114388F5F8093C8
:1004E0001438883110F01092143889E698E1019799
:1004F000F1F700C0000010920E3893E59A95F1F7DD
:080500000000A4CFF894FFCF26
:0C050800017E0CB69ECCDAFA4EFEDE003E
:00000001FF
