:100000000C943E000C9453000C9453000C94530039
:100010000C9453000C9453000C9455000C94530012
:100020000C9453000C9453000C9453000C94530004
:100030000C9453000C9453000C9453000C945300F4
:100040000C9453000C9453000C9453000C945300E4
:100050000C9453000C9453000C9453000C945300D4
:100060000C9453000C9453000C9453000C945300C4
:100070000C9453000C9453000C94530011241FBE95
:10008000CFEFCDBFDFE3DEBF18E3A0E0B8E3E2E7E8
:10009000F1E002C005900D92A030B107D9F70E949F
:1000A0007C000C94B7000C9400001F920F920FB6C6
:1000B0000F9211248F939F93EF93FF931092480117
:1000C00010924901E3E4F1E080818260808381B194
:1000D000886081B98FE99FE00197F1F700C00000C7
:1000E00081B1877F81B9FF91EF919F918F910F909F
:1000F0000FBE0F901F90189588ED84BF109260007E
:1001000084BF109261009FEF90B994B998B911B86B
:1001100015B819B884BF81E080937C0082E0809399
:100120004201809347018091410180FDFCCF89EF1E
:10013000809340018BE390E080934C0190934D01BC
:100140008FE19EE40197F1F700C000007894E0E5AC
:10015000F0E08081897F82608083E0E5F0E080814B
:1001600081608083889580818E7F8083F6CFF8942C
:02017000FFCFBF
:00000001FF
