S013000057696E646F77436C6F636B2E73726563AD
S11300000C943E000C945B000C945B000C945B001D
S11300100C94A1040C945B000C9448050C945B00B4
S11300200C945B000C945B000C943B020C945B00FE
S11300300C945B000C945B000C945B000C945B00D0
S11300400C945B000C945B000C945B000C945B00C0
S11300500C945B000C945B000C945B000C945B00B0
S11300600C945B000C945B000C945B000C945B00A0
S11300700C945B000C945B000C945B0011241FBE79
S1130080CFEFCDBFDFE3DEBF18E3A0E0B8E3E2ECDF
S1130090F0E102C005900D92A431B107D9F728E32D
S11300A0A4E1B8E301C01D92A933B207E1F70E94AD
S11300B0C5050C945F080C940000CF92DF92EF9278
S11300C0FF92CF93DF931092310484B1826084B99C
S11300D085B18D7F85B98DE18093060681E080939B
S11300E00806809108068111FCCFC8E0D6E018828A
S11300F0609110067091110680E090E00E9418074C
S11301006B017C019B01AC016AE979EA8CE894E417
S11301100E94770660932C3870932D3880932E3884
S113012090932F3884B18D7F84B98AE0809306063A
S113013081E08883809108068111FCCF1092080623
S1130140609110067091110689E08093310480E07B
S113015090E00E9418072DEC3CEC4CE85FE30E9411
S1130160CF07A70196010E9477066B017C0160937B
S113017028387093293880932A3890932B3826E6B0
S113018036E646EE5FE30E94CA07181624F0809113
S11301902638882321F086E0809306383BC02AE97C
S11301A039E949E95FE3C701B6010E94CA07181695
S11301B024F485E0809306382DC02DEC3CEC4CE40F
S11301C05FE3C701B6010E94CA07181624F484E04D
S11301D0809306381FC020E030E040E05FE3C701B1
S11301E0B6010E94CA07181624F483E080930638E7
S11301F011C02AE939E949E95EE3C701B6010E9461
S1130200CA07181624F482E08093063803C081E0FC
S11302108093063820E030E040E251E460912C38CD
S113022070912D3880912E3890912F380E94CF07ED
S11302300E94E906C62F20E030E040E251E4C70105
S1130240B6010E94CF070E94E9068DECC89FE12DFC
S11302501124E695E695E6952E2F220F922F990FFD
S1130260990F920FC91BAC2FB0E0A75FB74C9C91BC
S113027090932138E89F912D112496959695969503
S1130280990F292F220F220F920FE91BF0E0E75F4D
S1130290F74C908190932038689FE12D1124E695C6
S11302A0E695E6952E2F220F922F990F990F920F14
S11302B0691BA62FB0E0A75FB74C9C9190931F38A1
S11302C0E89F812D1124869586958695880F982F11
S11302D0990F990F890FE81BF0E0E75FF74C8081D5
S11302E080931E38DF91CF91FF90EF90DF90CF90F5
S11302F008950F931F93CF93DF938C01C0E0D0E058
S113030079C0319970C080EA9FE08093333890932C
S1130310343880910838823001F18330D9F181304A
S113032009F061C0319BFECF80913038882319F0E9
S11303301092303858C00E945D008FEF80932738A8
S113034080E293E0809333389093343887EA91E6DF
S11303500197F1F700C0000046C0319BFECF8091A9
S11303603038882319F0109230383DC080913738E6
S11303708F5F80933738883110F01092373880912E
S113038037388093353887EA91E60197F1F700C052
S1130390000029C0319BFECF80913038882319F0AA
S11303A01092303820C0809138388F5F809338386D
S11303B08C3358F010923838809137388F5F80939F
S11303C03738883110F0109237388091373880935D
S11303D03538809138388093363887EA91E601972A
S11303E0F1F700C0000089EF90E00197F1F700C039
S11303F000002196C017D10708F483CFDF91CF9175
S11304001F910F91089581B1817081B989B1807F65
S113041089B985B18F7C85B90895882319F08093B3
S11304200838089580910838833021F481E080935E
S1130430083808958F5F80930838089580910338B1
S1130440882349F010923538109237381092363894
S11304501092383808C080913538809337388091AD
S1130460363880933838109248011092490181E05F
S11304708093053808951F920F920FB60F9211249E
S1130480EF92FF920F931F932F933F934F935F939A
S11304906F937F938F939F93AF93BF93CF93DF9388
S11304A0EF93FF931092200A1092210AEBE0FAE0F6
S11304B08081806180838091333890913438892B96
S11304C019F40E94030226C280912738882381F000
S11304D080910838813061F4C0912138D09120385E
S11304E010911F3800911E38EE24E394F12C8FC034
S11304F080910338882329F080910838813009F4E9
S11305007DC080910238C09136388C1307C0909119
S1130510013880913538981709F464C0C0930238C3
S1130520809135388093013890910438992339F0BB
S1130530882321F08D3018F08C5001C08CE0EDEC54
S1130540CE9FA12D1124A695A695A6952A2F220FFC
S1130550922F990F990F920FC91BD0E0C75FD74C08
S1130560C881C0931D38AE9F912D11249695969500
S11305709695990F292F220F220F920FA91BB0E0F5
S1130580A75FB74CDC91D0931C388E9F912D11241A
S1130590969596959695392F330F232F220F220F78
S11305A0230F821BA82FB0E0A75FB74C1C911093B8
S11305B01B389E9FE12D1124E695E695E695EE0FF6
S11305C08E2F880F880FE80F9E1B21F410921A3883
S11305D000E010C0E92FF0E0E75FF74C00810093E2
S11305E01A3808C0C0911D38D0911C3810911B389E
S11305F000911A38F0901938E12C09C0E12C00E878
S113060010E80F2EF6E0FF2EF02DD0E8C0E8809120
S113061008388230A9F480911738909118380196DF
S11306208093173890931838811522E0920720F1AF
S11306308115944030F1109217381092183821C067
S11306408330A9F4809117389091183801968093DB
S1130650173890931838811522E0920780F081159D
S1130660944078F010921738109218380AC01092FB
S113067017381092183805C000E010E002C0D0E02E
S1130680C0E00E940302809100388F5F809300389D
S1130690893118F081E080930038809106388330E6
S11306A019F128F4813051F0823091F005C0853081
S11306B071F1F8F0863089F180E044C0809100380F
S11306C0883069F1803169F1883169F180E03AC09C
S11306D080910038863049F18C3049F1823149F1FA
S11306E0883149F180E02EC080910038837029F56B
S11306F029C0909100388BEA989F812D112486950A
S1130700282F220F820F98131AC080E01BC08091FB
S1130710003880FD16C080E015C081E013C081E080
S113072011C081E00FC081E00DC081E00BC081E009
S113073009C081E007C081E005C081E003C081E019
S113074001C081E08823D9F1809116388230E9F024
S113075028F4882341F0813059F031C08330E1F02E
S11307608430F9F02CC085B1806185B9C1B927C046
S113077089B1886089B9D1B9809127388823F9F083
S113078089B18E7FE82AE9B81AC0FF20C1F085B18B
S1130790806285B9F1B813C089B1846089B911B98F
S11307A00EC0002361F089B1826089B901B98091DA
S11307B02738882321F089B18E7FE82AE9B880910F
S11307C016388F5F80931638853009F0A3C01092D5
S11307D016388091480180FF04C080910838813028
S11307E021F086E08093193802C0109219382091C4
S11307F04801309149018091143890911538281797
S1130800390709F441C0E8E4F1E0808191818093E3
S1130810143890931538408151819A01A9E8B8E8B9
S11308200E9450080024880F991F001C880F991FEC
S1130830001C892F902D68E7689F9001699F300DF7
S1130840112442175307F1F48091053881111CC01B
S113085081E080930538809136388F5F80933638F5
S11308608C3340F0909135389F5F909335388C539A
S11308708093363880913538883130F088518093B0
S1130880353802C01092053880913338909134384D
S1130890009729F0019780933338909334388091EE
S11308A02738882319F0815080932738319B05C05D
S11308B010923138109232382DC080913138909195
S11308C0323801968093313890933238813B94408A
S11308D008F110923138109232380E941E0280E0E2
S11308E00E940D0281E08093303810920338809189
S11308F00838823079F4809125388F5F80932538C9
S1130900833028F0109225381092043803C081E017
S113091080930438FF91EF91DF91CF91BF91AF9114
S11309209F918F917F916F915F914F913F912F9103
S11309301F910F91FF90EF900F900FBE0F901F909B
S113094018951F920F920FB60F9211242F933F9375
S11309504F935F936F937F938F939F93AF93BF93C3
S1130960CF93DF93EF93FF93E9E2F4E08081826019
S11309708083309904C081E08093223876C0309B14
S113098074C080914801909149012091233830919D
S11309902438821B930B029720F481E08093223841
S11309A064C01092223880910738882321F0109275
S11309B007380E945D00E0913338F0913438309765
S11309C009F04AC040914801509149019A01A9E8AF
S11309D0B8E80E945008EC010024CC0FDD1F001C75
S11309E0CC0FDD1F001CCD2FD02DCA0160E27CE1AD
S11309F00E943C0840913738460F409335389E0199
S1130A00A9E8B8E80E945008969587959295829532
S1130A108F7089279F7089275CE3589F9001599FA5
S1130A20300D1124CE01821B930B90913838890F1D
S1130A30809336388C3330F04F5F409335388C5385
S1130A408093363880913538883118F088518093F6
S1130A50353881E080930538E032F34030F480E2A9
S1130A6093E08093333890933438FF91EF91DF9182
S1130A70CF91BF91AF919F918F917F916F915F9132
S1130A804F913F912F910F900FBE0F901F9018958B
S1130A901F920F920FB60F9211242F933F934F93EF
S1130AA05F936F937F938F939F93AF93BF93EF93D2
S1130AB0FF931092480110924901E3E4F1E0808130
S1130AC08260808380910838813051F48091373876
S1130AD0875F80933738883118F08851809337388E
S1130AE08091333890913438892B09F03DC00E94AD
S1130AF05D0060912C3870912D3880912E38909142
S1130B002F382AE939E949ED5FE30E947206181685
S1130B1094F088EDA89584BF809100018160809352
S1130B2000018091010181FDFCCF87EA91E60197E4
S1130B30F1F700C0000060912C3870912D3880913D
S1130B402E3890912F3826E636E646EA50E40E9485
S1130B50CA0788234CF080E797E180933338909359
S1130B60343881E080932638FF91EF91BF91AF91A3
S1130B709F918F917F916F915F914F913F912F91B1
S1130B800F900FBE0F901F90189588ED84BF1092A0
S1130B90600084BF97E0909361009FEF90B92CEFC1
S1130BA024B998B911B815B819B891E090933004E4
S1130BB028E02093310484BF90937C0082E08093EA
S1130BC04201809347018091410180FDFCCF81EF78
S1130BD0809340018FE19DEF80934C0190934D01F0
S1130BE010924801109249018DE08093000A1092FE
S1130BF0010A81E090E08093280A9093290A80E119
S1130C0080930A0A91E0909300061092010695E5FC
S1130C10909302068093A000E0E5F0E08081897F54
S1130C208260808381EE94E00197F1F700C00000B8
S1130C30789423C00E945D0060912C3870912D3807
S1130C4080912E3890912F3823E333E343EA50E424
S1130C500E94720688233CF410922638109233388E
S1130C60109234380EC088EB9BE00E94790180E733
S1130C7097E18093333890933438809126388111EA
S1130C80D9CF8091333890913438892B31F58091C4
S1130C902238811108C080914801909149018093C4
S1130CA02338909324380E94030281E00E940D02AD
S1130CB01092273881E080930738109225388FEFFF
S1130CC08093013880930238E0E5F0E08081816010
S1130CD08083889580818E7F808385E090E00E9468
S1130CE07901CBCF0E94550708F481E008950E9452
S1130CF08B060C9490070E94890758F00E94820783
S1130D0040F029F45F3F29F00C94790751110C94B9
S1130D10C4070C947F070E94A10768F39923B1F3D9
S1130D20552391F3951B550BBB27AA27621773070D
S1130D30840738F09F5F5F4F220F331F441FAA1FA1
S1130D40A9F335D00E2E3AF0E0E832D0915050405D
S1130D50E695001CCAF72BD0FE2F29D0660F771F0B
S1130D60881FBB1F261737074807AB07B0E809F0F1
S1130D70BB0B802DBF01FF2793585F4F3AF09E3F76
S1130D80510578F00C9479070C94C4075F3FE4F3A1
S1130D90983ED4F3869577956795B795F7959F5FB9
S1130DA0C9F7880F911D9695879597F90895E1E005
S1130DB0660F771F881FBB1F621773078407BA0764
S1130DC020F0621B730B840BBA0BEE1F88F7E095BF
S1130DD008950E94A90788F09F5798F0B92F992782
S1130DE0B751B0F0E1F0660F771F881F991F1AF012
S1130DF0BA95C9F714C0B13091F00E94C307B1E0AD
S1130E0008950C94C307672F782F8827B85F39F0AB
S1130E10B93FCCF3869577956795B395D9F73EF4AA
S1130E2090958095709561957F4F8F4F9F4F089552
S1130E30E89409C097FB3EF4909580957095619570
S1130E407F4F8F4F9F4F9923A9F0F92F96E9BB2726
S1130E509395F695879577956795B795F111F8CFA2
S1130E60FAF4BB0F11F460FF1BC06F5F7F4F8F4F0D
S1130E709F4F16C0882311F096E911C0772321F003
S1130E809EE8872F762F05C0662371F096E8862F9B
S1130E9070E060E02AF09A95660F771F881FDAF7F2
S1130EA0880F9695879597F90895990F0008550F1F
S1130EB0AA0BE0E8FEEF16161706E807F907C0F0DC
S1130EC012161306E407F50798F0621B730B840BE4
S1130ED0950B39F40A2661F0232B242B252B21F4BE
S1130EE008950A2609F4A140A6958FEF811D811D5E
S1130EF0089597F99F6780E870E060E008959FEF98
S1130F0080EC089500240A9416161706180609069C
S1130F10089500240A94121613061406050608956B
S1130F20092E0394000C11F4882352F0BB0F40F4F3
S1130F30BF2B11F460FF04C06F5F7F4F8F4F9F4F33
S1130F40089557FD9058440F551F59F05F3F71F0B5
S1130F504795880F97FB991F61F09F3F79F087951C
S1130F600895121613061406551FF2CF4695F1DFA5
S1130F7008C0161617061806991FF1CF8695710535
S1130F80610508940895E894BB2766277727CB0169
S1130F9097F908950E94550708F48FEF08950E9469
S1130FA0E2070C9490070E94820738F00E94890798
S1130FB020F0952311F00C9479070C947F071124E9
S1130FC00C94C4070E94A10770F3959FC1F3950F79
S1130FD050E0551F629FF001729FBB27F00DB11DB9
S1130FE0639FAA27F00DB11DAA1F649F6627B00D49
S1130FF0A11D661F829F2227B00DA11D621F739F32
S1131000B00DA11D621F839FA00D611D221F749F3F
S11310103327A00D611D231F849F600D211D822F86
S1131020762F6A2F11249F5750409AF0F1F08823AD
S11310304AF0EE0FFF1FBB1F661F771F881F9150DA
S11310405040A9F79E3F510580F00C9479070C9409
S1131050C4075F3FE4F3983ED4F38695779567958C
S1131060B795F795E7959F5FC1F7FE2B880F911D04
S11310709695879597F90895AA1BBB1B51E107C064
S1131080AA1FBB1FA617B70710F0A61BB70B881F14
S1131090991F5A95A9F780959095BC01CD010895A3
S11310A0A29FB001B39FC001A39F700D811D1124A5
S11310B0911DB29F700D811D1124911D0895F89406
S10510C0FFCF5C
S11310C201FFFF0101010601017E0CB69ECCDAFA92
S10710D24EFEDE00EC
S9030000FC
