S013000057696E646F77436C6F636B2E73726563AD
S11300000C943E000C945B000C945B000C945B001D
S11300100C946D040C945B000C94FB040C945B0036
S11300200C945B000C945B000C94D9010C945B0061
S11300300C945B000C945B000C945B000C945B00D0
S11300400C945B000C945B000C945B000C945B00C0
S11300500C945B000C945B000C945B000C945B00B0
S11300600C945B000C945B000C945B000C945B00A0
S11300700C945B000C945B000C945B0011241FBE79
S1130080CFEFCDBFDFE3DEBF18E3A0E0B8E3E6E0E7
S1130090F0E102C005900D92A231B107D9F728E32F
S11300A0A2E1B8E301C01D92AB32B207E1F70E94AE
S11300B078050C9401080C940000CF92DF92EF9223
S11300C0FF92CF93DF931092310484B1826084B99C
S11300D085B18D7F85B98DE18093060681E080939B
S11300E00806809108068111FCCFC8E0D6E018828A
S11300F0609110067091110680E090E00E94BA06AB
S11301006B017C019B01AC016AE979EA8CE894E417
S11301100E94190660931E3870931F38809320380C
S11301209093213884B18D7F84B98AE08093060648
S113013081E08883809108068111FCCF1092080623
S1130140609110067091110689E08093310480E07B
S113015090E00E94BA062DEC3CEC4CE85FE30E9470
S11301607107A70196010E9419066B017C01609337
S11301701A3870931B3880931C3890931D3826E6E8
S113018036E646EE5FE30E946C07181624F0809171
S11301901738882321F086E0809304383BC02AE98D
S11301A039E949E95FE3C701B6010E946C071816F3
S11301B024F485E0809304382DC02DEC3CEC4CE411
S11301C05FE3C701B6010E946C07181624F484E0AB
S11301D0809304381FC020E030E040E05FE3C701B3
S11301E0B6010E946C07181624F483E08093043847
S11301F011C02AE939E949E95EE3C701B6010E9461
S11302006C07181624F482E08093043803C081E05C
S113021080930438DF91CF91FF90EF90DF90CF90DF
S113022008950F931F93CF93DF938C01C0E0D0E028
S11302307CC0319973C080E49FE18093253890930A
S1130240263880910638823019F18330F1F18130FB
S113025009F064C0319BFECF80912238882319F0C5
S1130260109222385BC00E945D0080E293E080938C
S113027018389093193880E496E080932538909349
S113028026388FE493EC0197F1F700C0000046C0D4
S1130290319BFECF80912238882319F010922238A6
S11302A03DC0809129388F5F80932938883110F0C0
S11302B01092293880912938809327388FE493EC61
S11302C00197F1F700C0000029C0319BFECF809157
S11302D02238882319F01092223820C080912A38BD
S11302E08F5F80932A388C3358F010922A3880918B
S11302F029388F5F80932938883110F0109229387B
S1130300809129388093273880912A38809328381F
S11303108FE493EC0197F1F700C0000083EF91E0C4
S11303200197F1F700C000002196C017D10708F427
S113033080CFDF91CF911F910F91089581B181708A
S113034081B989B18E7F89B985B18F7C85B989B12D
S1130350817F89B90895882319F080930638089518
S113036080910638833021F481E080930638089523
S11303708F5F80930638089580910138882349F06F
S113038010922738109229381092283810922A385F
S113039008C0809127388093293880912838809329
S11303A02A38109248011092490181E08093033861
S11303B008951F920F920FB60F921124EF92FF929D
S11303C00F931F932F933F934F935F936F937F9359
S11303D08F939F93AF93BF93CF93DF93EF93FF9349
S11303E01092200A1092210AEBE0FAE080818061E9
S11303F080838091253890912638892B19F40E94A6
S11304009E0154C28091183890911938892B09F4AF
S11304106FC080910638813009F06AC020E030E076
S113042040E251E460911E3870911F388091203869
S1130430909121380E9471070E948B06C62F20E0FC
S113044030E040E251E460911A3870911B38809199
S11304501C3890911D380E9471070E948B068DEC08
S1130460C89FE12D1124E695E695E6952E2F220FDF
S1130470922F990F990F920FC91BAC2FB0E0A95F6F
S1130480B74CCC91E89F912D11249695969596950D
S1130490990F292F220F220F920FE91BF0E0E95F39
S11304A0F74CD081689FE12D1124E695E695E695F9
S11304B02E2F220F922F990F990F920F691BA62F9F
S11304C0B0E0A95FB74C0C91E89F812D112486956B
S11304D086958695880F982F990F990F890FE81B99
S11304E0F0E0E95FF74CF080EE24E39410E070C094
S11304F080910138882329F080910638813009F4ED
S11305005CC080910238882341F080912738882389
S113051039F08D3030F08C5004C08091273801C000
S11305208CE0C0912838EDECCE9FA12D1124A69526
S1130530A695A6952A2F220F922F990F990F920F05
S1130540C91BD0E0C95FD74CC881AE9F912D11243F
S1130550969596959695990F292F220F220F920F13
S1130560A91BB0E0A95FB74CDC91109115388E9FA0
S1130570912D1124969596959695392F330F232F07
S1130580220F220F230F821BA82FB0E0A95FB74CC4
S11305900C919E9FE12D1124E695E695E695EE0FCC
S11305A08E2F880F880FE80F9E1B81F0E92FF0E053
S11305B0E95FF74CF080E12C0BC0E12C6894FF2438
S11305C0F7F800E816E0D0E8C0E802C0E12CF12C0E
S11305D0809106388230A9F48091133890911438B0
S11305E001968093133890931438883E23E0920741
S11305F020F1813D974030F1109213381092143855
S113060021C08330A9F48091133890911438019655
S11306108093133890931438883E23E0920780F037
S1130620813D974078F010921338109214380AC024
S1130630109213381092143805C0F12C00E002C057
S1130640D0E0C0E00E949E01809100388F5F8093CB
S113065000388C3018F081E08093003880910438A1
S1130660833019F128F4813051F08230C9F005C08B
S1130670853079F140F18630C1F180E047C02091A6
S113068000388BEA289F812D112486958695982F12
S1130690990F890F982F990F291749F180E036C0D7
S11306A080910038837029F531C0909100388BEA2D
S11306B0989F812D11248695282F220F820F98133D
S11306C01AC080E023C08091003880FD16C080E00D
S11306D01DC08091003880FD12C0833091F08730B6
S11306E091F08B3091F080E011C081E00FC081E087
S11306F00DC081E00BC081E009C081E007C081E04A
S113070005C081E003C081E001C081E0882379F164
S1130710809112388230C9F028F4882341F0813066
S113072059F025C08330B1F08430C9F020C085B1C0
S1130730806185B9C1B91BC089B1886089B9D1B953
S113074089B18E7FE82AE9B812C085B1806285B983
S113075011B90DC089B1846089B901B908C089B1E2
S1130760826089B9F1B889B18E7FE82AE9B88091AD
S113077012388F5F80931238853009F097C0109239
S11307801238809148019091490180FF04C0809102
S11307900638813021F086E08093153802C010922B
S11307A0153840914801509149019A01A9E8B8E8E7
S11307B00E94F2070024880F991F001C880F991FBC
S11307C0001C892F902D68E7689F9001699F300D68
S11307D0112442175307F1F48091033881111CC08E
S11307E081E080930338809128388F5F8093283884
S11307F08C3340F0909127389F5F909327388C5327
S11308008093283880912738883130F0885180933C
S1130810273802C0109203388091253890912638E9
S1130820009729F00197809325389093263880917A
S1130830183890911938009729F001978093183847
S113084090931938319B05C01092233810922438A4
S11308502DC08091233890912438019680932338B9
S113086090932438813B944008F1109223381092DD
S113087024380E94BC0180E00E94AB0181E0809397
S113088022381092013880910638823079F48091B0
S113089016388F5F80931638833028F010921638FC
S11308A01092023803C081E080930238FF91EF91E7
S11308B0DF91CF91BF91AF919F918F917F916F9174
S11308C05F914F913F912F911F910F91FF90EF9066
S11308D00F900FBE0F901F9018951F920F920FB696
S11308E00F9211242F933F934F935F936F937F93B2
S11308F08F939F93AF93BF93CF93DF93EF93FF9324
S1130900E9E2F4E0808182608083309B61C0309BA7
S11309105FC080910538882321F0109205380E9429
S11309205D00E0912538F0912638309709F047C0F2
S113093040914801509149019A01A9E8B8E80E9400
S1130940F207EC010024CC0FDD1F001CCC0FDD1FCF
S1130950001CCD2FD02DCA0160E27CE10E94DE078D
S113096040912938460F409327389E01A9E8B8E8FA
S11309700E94F20796958795929582958F708927A4
S11309809F7089275CE3589F9001599F300D112473
S1130990CE01821B930B90912A38890F80932838BB
S11309A08C3330F04F5F409327388C538093283832
S11309B080912738883118F0885180932738E034A3
S11309C0F64030F480E496E08093253890932638FE
S11309D0FF91EF91DF91CF91BF91AF919F918F9153
S11309E07F916F915F914F913F912F910F900FBE27
S11309F00F901F9018951F920F920FB60F9211240B
S1130A002F933F934F935F936F937F938F939F9312
S1130A10AF93BF93EF93FF93109248011092490153
S1130A20E3E4F1E080818260808380910638813044
S1130A3051F480912938875F80932938883118F0E0
S1130A408851809329388091253890912638892BB4
S1130A5009F03DC00E945D0060911E3870911F38FE
S1130A6080912038909121382AE939E949ED5FE3F2
S1130A700E941406181694F088EDA89584BF8091FE
S1130A8000018160809300018091010181FDFCCF10
S1130A908FE493EC0197F1F700C0000060911E38D9
S1130AA070911F38809120389091213826E636E6DF
S1130AB046EA50E40E946C0788234CF080EA98E2EE
S1130AC0809325389093263881E080931738FF91DE
S1130AD0EF91BF91AF919F918F917F916F915F91B2
S1130AE04F913F912F910F900FBE0F901F9018952B
S1130AF088ED84BF1092600084BF95E090936100FC
S1130B009FEF90B92CEF24B998B911B815B819B85A
S1130B1091E09093300428E02093310484BF9093B3
S1130B207C0082E0809342018093470180914101DF
S1130B3080FDFCCF81EF809340018FE19DEF809396
S1130B404C0190934D0110924801109249018DE09F
S1130B508093000A1092010A1092280A1092290A1E
S1130B6080E180930A0A91E09093000610920106B6
S1130B7095E5909302068093A000E0E5F0E0808183
S1130B80897F8260808383EC99E00197F1F700C04C
S1130B900000789423C00E945D0060911E3870911B
S1130BA01F38809120389091213823E333E343EABE
S1130BB050E40E94140688233CF4109217381092D3
S1130BC02538109226380EC088EB9BE00E94110154
S1130BD080EA98E2809325389093263880911738DC
S1130BE08111D9CF8091253890912638892BB9F479
S1130BF00E949E0181E00E94AB011092183810926D
S1130C00193881E08093053810921638E0E5F0E059
S1130C10808181608083889580818E7F808385E058
S1130C2090E00E941101DACF0E94F70608F481E0F7
S1130C3008950E942D060C9432070E942B0758F049
S1130C400E94240740F029F45F3F29F00C941B070D
S1130C5051110C9466070C9421070E94430768F312
S1130C609923B1F3552391F3951B550BBB27AA2761
S1130C7062177307840738F09F5F5F4F220F331F9B
S1130C80441FAA1FA9F335D00E2E3AF0E0E832D063
S1130C9091505040E695001CCAF72BD0FE2F29D066
S1130CA0660F771F881FBB1F261737074807AB0738
S1130CB0B0E809F0BB0B802DBF01FF2793585F4FAD
S1130CC03AF09E3F510578F00C941B070C9466078C
S1130CD05F3FE4F3983ED4F3869577956795B7958F
S1130CE0F7959F5FC9F7880F911D9695879597F99A
S1130CF00895E1E0660F771F881FBB1F6217730713
S1130D008407BA0720F0621B730B840BBA0BEE1F27
S1130D1088F7E09508950E944B0788F09F5798F054
S1130D20B92F9927B751B0F0E1F0660F771F881FEC
S1130D30991F1AF0BA95C9F714C0B13091F00E9406
S1130D406507B1E008950C946507672F782F88270D
S1130D50B85F39F0B93FCCF3869577956795B3952D
S1130D60D9F73EF490958095709561957F4F8F4F9C
S1130D709F4F0895E89409C097FB3EF490958095A1
S1130D80709561957F4F8F4F9F4F9923A9F0F92F4D
S1130D9096E9BB279395F695879577956795B795CB
S1130DA0F111F8CFFAF4BB0F11F460FF1BC06F5FB1
S1130DB07F4F8F4F9F4F16C0882311F096E911C0C3
S1130DC0772321F09EE8872F762F05C0662371F0E4
S1130DD096E8862F70E060E02AF09A95660F771FF8
S1130DE0881FDAF7880F9695879597F90895990FD4
S1130DF00008550FAA0BE0E8FEEF16161706E807E1
S1130E00F907C0F012161306E407F50798F0621B01
S1130E10730B840B950B39F40A2661F0232B242BD6
S1130E20252B21F408950A2609F4A140A6958FEFF5
S1130E30811D811D089597F99F6780E870E060E047
S1130E4008959FEF80EC089500240A94161617065F
S1130E5018060906089500240A94121613061406A7
S1130E6005060895092E0394000C11F4882352F00A
S1130E70BB0F40F4BF2B11F460FF04C06F5F7F4FC2
S1130E808F4F9F4F089557FD9058440F551F59F0A9
S1130E905F3F71F04795880F97FB991F61F09F3F63
S1130EA079F087950895121613061406551FF2CF8C
S1130EB04695F1DF08C0161617061806991FF1CFDC
S1130EC086957105610508940895E894BB27662703
S1130ED07727CB0197F908950E94F70608F48FEF5E
S1130EE008950E9484070C9432070E94240738F066
S1130EF00E942B0720F0952311F00C941B070C94EF
S1130F00210711240C9466070E94430770F3959FF0
S1130F10C1F3950F50E0551F629FF001729FBB27EC
S1130F20F00DB11D639FAA27F00DB11DAA1F649F88
S1130F306627B00DA11D661F829F2227B00DA11D3B
S1130F40621F739FB00DA11D621F839FA00D611DC1
S1130F50221F749F3327A00D611D231F849F600DE2
S1130F60211D822F762F6A2F11249F5750409AF00B
S1130F70F1F088234AF0EE0FFF1FBB1F661F771F97
S1130F80881F91505040A9F79E3F510580F00C9462
S1130F901B070C9466075F3FE4F3983ED4F38695F1
S1130FA077956795B795F795E7959F5FC1F7FE2B02
S1130FB0880F911D9695879597F90895AA1BBB1BD9
S1130FC051E107C0AA1FBB1FA617B70710F0A61B45
S1130FD0B70B881F991F5A95A9F780959095BC0166
S1130FE0CD010895A29FB001B39FC001A39F700DCE
S1130FF0811D1124911DB29F700D811D1124911D1D
S10910000895F894FFCFEF
S1131006010101010601017E0CB69ECCDAFA4EFE00
S1051016DE00F6
S9030000FC
