:100000000C943E000C945B000C945B000C945B0021
:100010000C946D030C945B000C94E9030C945B004E
:100020000C945B000C945B000C9460010C945B00DE
:100030000C945B000C945B000C945B000C945B00D4
:100040000C945B000C945B000C945B000C945B00C4
:100050000C945B000C945B000C945B000C945B00B4
:100060000C945B000C945B000C945B000C945B00A4
:100070000C945B000C945B000C945B0011241FBE7D
:10008000CFEFCDBFDFE3DEBF18E3A0E0B8E3E8EBDE
:10009000FDE002C005900D92AE30B107D9F728E31C
:1000A000AEE0B8E301C01D92A332B207E1F70E94AF
:1000B0007C040C94DA060C940000CF92DF92EF924D
:1000C000FF92CF93DF938DE18093060681E08093CA
:1000D0000806809108068111FCCFC8E0D6E018829E
:1000E000609110067091110680E090E00E94B605C4
:1000F0006B017C019B01AC016AE979EA8CE894E42C
:100100000E941505609318387093193880931A3837
:1001100090931B381092310484B1826084B985B108
:100120008D7F85B989EF90E00197F1F700C000005D
:1001300084B18D7F84B98AE08093060681E088834C
:10014000809108068111FCCF10920806609110067C
:100150007091110689E08093310480E090E00E9464
:10016000B6052DEC3CEC4CE85FE30E946D06A70160
:1001700096010E941505609314387093153880938A
:10018000163890931738DF91CF91FF90EF90DF9062
:10019000CF9008950F931F93CF93DF938C01C0E00E
:1001A000D0E067C031995EC080EC92E180931F3847
:1001B00090932038809102388230D1F0833089F1D9
:1001C000813009F04FC0319BFECF80911C388823CD
:1001D00019F010921C3846C00E945D0088EC809394
:1001E000133887EA91E60197F1F700C000003AC0A2
:1001F000319BFECF80911C38882319F010921C3857
:1002000031C0809121388F5F80932138883110F080
:100210001092213887EA91E60197F1F700C00000BB
:1002200021C0319BFECF80911C38882319F0109299
:100230001C3818C0809122388F5F809322388C330D
:1002400088F010922238809121388F5F8093213876
:10025000883110F01092213887EA91E60197F1F782
:1002600000C0000089EF90E00197F1F700C00000A6
:100270002196C017D10708F495CFDF91CF911F9138
:100280000F91089581B1817081B989B18E7F89B94B
:1002900085B18F7C85B989B1817F89B9089588231B
:1002A00019F080930238089580910238833021F448
:1002B00081E08093023808958F5F8093023808951B
:1002C0001F920F920FB60F921124AF92BF92CF924E
:1002D000DF92EF92FF920F931F932F933F934F93D1
:1002E0005F936F937F938F939F93AF93BF93CF93BE
:1002F000DF93EF93FF931092200A1092210A80E17E
:1003000080930B0A80911F3890912038892B19F423
:100310000E944201C7C180911338882309F46FC03D
:1003200080910238813009F06AC020E030E040E27C
:1003300051E4609118387091193880911A38909171
:100340001B380E946D060E948705C62F20E030E012
:1003500040E251E46091143870911538809116385C
:10036000909117380E946D060E9487058DECC89FFA
:10037000E12D1124E695E695E6952E2F220F922F7A
:10038000990F990F920FC91BAC2FB0E0AD5FB74C1E
:10039000CC91E89F912D1124969596959695990F5D
:1003A000292F220F220F920FE91BF0E0ED5FF74C8F
:1003B000D081689FE12D1124E695E695E6952E2FD4
:1003C000220F922F990F990F920F691BA62FB0E061
:1003D000AD5FB74C1C91E89F812D112486958695C1
:1003E0008695880F982F990F990F890FE81BF0E0D9
:1003F000ED5FF74C0081BB24B394A12C55C0C09194
:100400002238EDECCE9FA12D1124A695A695A69598
:100410009A2F990F892F880F880F890FC81BD0E05A
:10042000CD5FD74CC881AE9F812D112486958695CE
:100430008695880F982F990F990F890FA81BB0E008
:10044000AD5FB74CDC91A0912138AE9F812D112476
:10045000869586958695282F220F922F990F990FB2
:10046000920FA91BB0E0AD5FB74C1C918E9FE12DA0
:100470001124E695E695E695EE0F9E2F990F990FBC
:10048000E90F8E1B59F0E82FF0E0ED5FF74C00818B
:10049000B12C0F2EF6E0AF2EF02D06C0B12C00E0EF
:1004A0000F2EF6E0AF2EF02D809102388230A9F4A5
:1004B00080910F3890911038019680930F38909367
:1004C0001038811522E0920720F18115944030F117
:1004D00010920F381092103821C08330A9F4809107
:1004E0000F3890911038019680930F389093103800
:1004F000811522E0920780F08115944078F01092E7
:100500000F38109210380AC010920F38109210381D
:1005100005C000E010E002C0D0E0C0E00E9442014F
:10052000C0901438D0901538E0901638F0901738F5
:100530002AE939E949E95FE3C701B6010E94680683
:10054000181624F080911138882321F083E08093DD
:10055000003811C020E030E040E05FE3C701B601A1
:100560000E946806181624F482E08093003803C0C5
:1005700081E080930038809112388F5F8093123829
:10058000883010F01092123880910038833081F05A
:10059000823031F48091123880FD0CC080E00FC0B1
:1005A000813051F480911238837041F080E007C0AF
:1005B00081E005C081E003C080E001C081E08823C4
:1005C000A9F180910E388230E1F028F4882341F0BF
:1005D000813071F02BC08330C9F08430F9F026C02F
:1005E00085B1806185B9C1B989B18E7F89B91EC0D5
:1005F00089B1886089B9D1B989B18E7FB82AB9B873
:1006000015C085B1806285B9A1B810C089B1846078
:1006100089B911B989B18E7F89B908C089B1826061
:1006200089B901B989B18E7FB82AB9B880910E38DD
:100630008F5F80930E388530A9F510920E38809127
:100640001F3890912038009729F0019780931F3828
:100650009093203880911338882319F0815080932B
:100660001338319B05C010921D3810921E381AC0E5
:1006700080911D3890911E38019680931D3890937B
:100680001E38813B944070F010921D3810921E3835
:10069000109248011092490180E00E944F0181E0D0
:1006A00080931C38FF91EF91DF91CF91BF91AF9173
:1006B0009F918F917F916F915F914F913F912F917A
:1006C0001F910F91FF90EF90DF90CF90BF90AF9070
:1006D0000F900FBE0F901F9018951F920F920FB69C
:1006E0000F921124CF92DF92EF92FF922F933F93BC
:1006F0004F935F936F937F938F939F93AF93BF932A
:10070000EF93FF93E9E2F4E0808182608083309B85
:100710004BC0309B49C0C0901838D0901938E09039
:100720001A38F0901B382AE939E949E850E4C70142
:10073000B6010E94680618163CF480E89CE080939D
:100740001F389093203828C023E333E343E550E477
:10075000C701B6010E94680618163CF488E29AE0C8
:1007600080931F389093203817C026E636E646E27D
:1007700050E4C701B6010E94680618163CF480EDEB
:1007800097E080931F389093203806C088E795E063
:1007900080931F389093203880910138882321F06E
:1007A000109201380E945D00FF91EF91BF91AF91CF
:1007B0009F918F917F916F915F914F913F912F9179
:1007C000FF90EF90DF90CF900F900FBE0F901F9093
:1007D00018951F920F920FB60F9211242F933F93EB
:1007E0004F935F936F937F938F939F93AF93BF9339
:1007F000EF93FF931092480110924901E3E4F1E076
:1008000080818260808380910238813091F4809170
:1008100022388F5F809322388C3358F01092223820
:10082000809121388F5F80932138883110F01092A9
:1008300021389091223889E8989F812D1124829542
:100840008F702EE1829F90191124911144C08091E4
:100850001F3890912038892B09F03DC00E945D001F
:10086000609118387091193880911A3890911B381E
:100870002AE939E949ED5FE30E941005181694F062
:1008800088EDA89584BF809100018160809300016C
:100890008091010181FDFCCF87EA91E60197F1F794
:1008A00000C00000609118387091193880911A3892
:1008B00090911B3826E636E646EA50E40E94680628
:1008C00088234CF080E099E180931F389093203882
:1008D00081E080931138FF91EF91BF91AF919F918B
:1008E0008F917F916F915F914F913F912F910F90D9
:1008F0000FBE0F901F90189588ED84BF1092600076
:1009000084BF97E0909361009FEF90B92CEF24B9DA
:1009100098B911B815B819B891E09093300428E04F
:100920002093310484BF90937C0082E08093420145
:10093000809347018091410180FDFCCF89EF809336
:10094000400110924C0110924D018DE08093000AFD
:100950001092010A81E090E08093280A9093290A7E
:1009600080E180930A0A91E09093000610920106BC
:1009700095E5909302068093A000E0E5F0E0808189
:10098000897F8260808381EE94E00197F1F700C057
:100990000000789423C00E945D0060911838709127
:1009A000193880911A3890911B3823E333E343EAD6
:1009B00050E40E94100588233CF4109211381092E4
:1009C0001F38109220380EC088EB9BE00E94CA00AE
:1009D00080E099E180931F389093203880911138FE
:1009E0008111D9CF80911F3890912038892B99F4AB
:1009F0000E94420181E00E944F011092133881E071
:100A000080930138E0E5F0E0808181608083889503
:100A100080818E7F808385E090E00E94CA00DECFD7
:100A20000E94F30508F481E008950E9429050C94C2
:100A30002E060E94270658F00E94200640F029F456
:100A40005F3F29F00C94170651110C9462060C9428
:100A50001D060E943F0668F39923B1F3552391F3D5
:100A6000951B550BBB27AA2762177307840738F01D
:100A70009F5F5F4F220F331F441FAA1FA9F335D07A
:100A80000E2E3AF0E0E832D091505040E695001C2E
:100A9000CAF72BD0FE2F29D0660F771F881FBB1FE8
:100AA000261737074807AB07B0E809F0BB0B802DC6
:100AB000BF01FF2793585F4F3AF09E3F510578F0F2
:100AC0000C9417060C9462065F3FE4F3983ED4F34F
:100AD000869577956795B795F7959F5FC9F7880FC6
:100AE000911D9695879597F90895E1E0660F771F18
:100AF000881FBB1F621773078407BA0720F0621BA9
:100B0000730B840BBA0BEE1F88F7E09508950E94D3
:100B1000470688F09F5798F0B92F9927B751B0F042
:100B2000E1F0660F771F881F991F1AF0BA95C9F771
:100B300014C0B13091F00E946106B1E008950C94A8
:100B40006106672F782F8827B85F39F0B93FCCF35B
:100B5000869577956795B395D9F73EF490958095EE
:100B6000709561957F4F8F4F9F4F0895E89409C00E
:100B700097FB3EF490958095709561957F4F8F4FD0
:100B80009F4F9923A9F0F92F96E9BB279395F695E6
:100B9000879577956795B795F111F8CFFAF4BB0F64
:100BA00011F460FF1BC06F5F7F4F8F4F9F4F16C0C8
:100BB000882311F096E911C0772321F09EE8872F52
:100BC000762F05C0662371F096E8862F70E060E00E
:100BD0002AF09A95660F771F881FDAF7880F969587
:100BE000879597F90895990F0008550FAA0BE0E82B
:100BF000FEEF16161706E807F907C0F012161306DF
:100C0000E407F50798F0621B730B840B950B39F41E
:100C10000A2661F0232B242B252B21F408950A2684
:100C200009F4A140A6958FEF811D811D089597F9C4
:100C30009F6780E870E060E008959FEF80EC089582
:100C400000240A94161617061806090608950024AB
:100C50000A9412161306140605060895092E039425
:100C6000000C11F4882352F0BB0F40F4BF2B11F499
:100C700060FF04C06F5F7F4F8F4F9F4F089557FDF8
:100C80009058440F551F59F05F3F71F04795880FFA
:100C900097FB991F61F09F3F79F087950895121691
:100CA00013061406551FF2CF4695F1DF08C016163D
:100CB00017061806991FF1CF8695710561050894EE
:100CC0000895E894BB2766277727CB0197F9089505
:100CD0000E94F30508F48FEF08950E9480060C949B
:100CE0002E060E94200638F00E94270620F0952349
:100CF00011F00C9417060C941D0611240C94620636
:100D00000E943F0670F3959FC1F3950F50E0551F69
:100D1000629FF001729FBB27F00DB11D639FAA2750
:100D2000F00DB11DAA1F649F6627B00DA11D661F9F
:100D3000829F2227B00DA11D621F739FB00DA11DC0
:100D4000621F839FA00D611D221F749F3327A00D7A
:100D5000611D231F849F600D211D822F762F6A2F16
:100D600011249F5750409AF0F1F088234AF0EE0F7B
:100D7000FF1FBB1F661F771F881F91505040A9F7A8
:100D80009E3F510580F00C9417060C9462065F3F5D
:100D9000E4F3983ED4F3869577956795B795F795E4
:100DA000E7959F5FC1F7FE2B880F911D969587955C
:080DB00097F90895F894FFCFB4
:0E0DB8000301017E0CB69ECCDAFA4EFEDE0080
:00000001FF
