:100000000C943E000C9453000C9453000C94530039
:100010000C9453000C9453000C9453000C94550012
:100020000C9453000C9453000C9453000C94530004
:100030000C9453000C9453000C9453000C945300F4
:100040000C9453000C9453000C9453000C945300E4
:100050000C9453000C9453000C9453000C945300D4
:100060000C9453000C9453000C9453000C945300C4
:100070000C9453000C9453000C94530011241FBE95
:10008000CFEFCDBFDFE3DEBF18E3A0E0B8E3E2E9E6
:10009000F1E002C005900D92A230B107D9F70E949D
:1000A0007B000C94C7000C9400001F920F920FB6B7
:1000B0000F9211248F939F9381E08093530180913D
:1000C00000388F5F809300388A3071F410920038C6
:1000D00081B1886081B98FE99FE00197F1F700C095
:1000E000000081B1877F81B99F918F910F900FBEE2
:1000F0000F901F90189598ED94BF1092600094BFD8
:10010000109261008EE080B983E084B98FE088B9F5
:1001100011B815B819B888E08093140480931504B9
:10012000809316048093170494BF81E080937C0031
:100130001092420182E0809347018091410180FD4D
:10014000FCCF81EF8093400181E78093500181E0F3
:100150008093520181E090E080934C0190934D0197
:100160008FE19EE40197F1F700C000007894E0E58C
:10017000F0E08081897F84608083E0E5F0E0808129
:1001800081608083889580818E7F8083F6CFF8940C
:02019000FFCF9F
:02019200090062
:00000001FF
