:100000000C943E000C945B000C945B000C945B0021
:100010000C948F040C945B000C941D050C945B00F5
:100020000C945B000C945B000C943E020C945B00FF
:100030000C945B000C945B000C945B000C945B00D4
:100040000C945B000C945B000C945B000C945B00C4
:100050000C945B000C945B000C945B000C945B00B4
:100060000C945B000C945B000C945B000C945B00A4
:100070000C945B000C945B000C945B0011241FBE7D
:10008000CFEFCDBFDFE3DEBF18E3A0E0B8E3E4E5E8
:10009000F0E102C005900D92A431B107D9F728E331
:1000A000A4E1B8E301C01D92A433B207E1F70E94B6
:1000B0009A050C9428080C940000CF92DF92EF92DE
:1000C000FF92CF93DF931092310484B1826084B9A0
:1000D00085B18D7F85B98DE18093060681E080939F
:1000E0000806809108068111FCCFC8E0D6E018828E
:1000F000609110067091110680E090E00E94E10688
:100100006B017C019B01AC016AE979EA8CE894E41B
:100110000E944006609327387093283880932938CE
:1001200090932A3884B18D7F84B98AE08093060643
:1001300081E08883809108068111FCCF1092080627
:10014000609110067091110689E08093310480E07F
:1001500090E00E94E1062DEC3CEC4CE85FE30E944D
:100160009807A70196010E9440066B017C016093ED
:10017000233870932438809325389093263826E6C8
:1001800036E646EE5FE30E949307181624F080914E
:100190002138882321F086E0809306383BC02AE985
:1001A00039E949E95FE3C701B6010E9493071816D0
:1001B00024F485E0809306382DC02DEC3CEC4CE413
:1001C0005FE3C701B6010E949307181624F484E088
:1001D000809306381FC020E030E040E05FE3C701B5
:1001E000B6010E949307181624F483E08093063822
:1001F00011C02AE939E949E95EE3C701B6010E9465
:100200009307181624F482E08093063803C081E037
:100210008093063820E030E040E251E460912738D6
:10022000709128388091293890912A380E94980737
:100230000E94B206C62F20E030E040E251E4C70140
:10024000B6010E9498070E94B2068DECC89FE12D6E
:100250001124E695E695E6952E2F220F922F990F01
:10026000990F920FC91BAC2FB0E0A75FB74C9C91C0
:1002700090931F38E89F912D112496959695969509
:10028000990F292F220F220F920FE91BF0E0E75F51
:10029000F74C908190931E38689FE12D1124E695CC
:1002A000E695E6952E2F220F922F990F990F920F18
:1002B000691BA62FB0E0A75FB74C9C9190931D38A7
:1002C000E89F812D1124869586958695880F982F15
:1002D000990F990F890FE81BF0E0E75FF74C8081D9
:1002E00080931C38DF91CF91FF90EF90DF90CF90FB
:1002F00008950F931F93CF93DF938C01C0E0D0E05C
:1003000079C0319970C088E893E180932E3890933A
:100310002F3880910838823001F18330D9F1813053
:1003200009F061C0319BFECF80912B38882319F0F2
:1003300010922B3858C00E945D008FEF80932238B6
:1003400088EE93E080932E3890932F3887EA91E6D9
:100350000197F1F700C0000046C0319BFECF8091AD
:100360002B38882319F010922B383DC080913238F9
:100370008F5F80933238883110F01092323880913C
:1003800032388093303887EA91E60197F1F700C060
:10039000000029C0319BFECF80912B38882319F0B3
:1003A00010922B3820C0809133388F5F8093333880
:1003B0008C3358F010923338809132388F5F8093AD
:1003C0003238883110F01092323880913238809370
:1003D0003038809133388093313887EA91E601973D
:1003E000F1F700C0000089EF90E00197F1F700C03D
:1003F00000002196C017D10708F483CFDF91CF9179
:100400001F910F91089581B1817081B989B18E7F5B
:1004100089B985B18F7C85B989B1817F89B9089502
:10042000882319F080930838089580910838833024
:1004300021F481E08093083808958F5F8093083815
:10044000089580910338882349F010923038109233
:100450003238109231381092333808C080913038D9
:10046000809332388091313880933338109248012C
:100470001092490181E08093053808951F920F92F0
:100480000FB60F921124EF92FF920F931F932F93A9
:100490003F934F935F936F937F938F939F93AF930C
:1004A000BF93CF93DF93EF93FF931092200A1092A4
:1004B000210AEBE0FAE080818061808380912E3810
:1004C00090912F38892B19F40E94030211C2809158
:1004D0002238882381F080910838813061F4C091FE
:1004E0001F38D0911E3810911D3800911C38FF2400
:1004F000F394E12C8FC080910338882329F08091F8
:100500000838813009F47DC080910238C0913138BB
:100510008C1307C09091013880913038981709F4F6
:1005200064C0C09302388091303880930138909134
:100530000438992339F0882321F08D3018F08C503D
:1005400001C08CE0EDECCE9FA12D1124A695A695BF
:10055000A6952A2F220F922F990F990F920FC91B40
:10056000D0E0C75FD74CC881C0931B38AE9F912D98
:100570001124969596959695990F292F220F220F63
:10058000920FA91BB0E0A75FB74CDC91D0931A384B
:100590008E9F912D1124969596959695392F330F10
:1005A000232F220F220F230F821BA82FB0E0A75F5B
:1005B000B74C1C91109319389E9FE12D1124E6959C
:1005C000E695E695EE0F8E2F880F880FE80F9E1B9D
:1005D00021F41092183800E010C0E92FF0E0E75F36
:1005E000F74C00810093183808C0C0911B38D09197
:1005F0001A381091193800911838E0901738F12CFA
:1006000009C0F12C00E810E80F2EF6E0EF2EF02DD7
:10061000D0E8C0E8809108388230A9F4809115387C
:10062000909116380196809315389093163881155D
:1006300022E0920720F18115944030F11092153894
:100640001092163821C08330A9F48091153890910A
:10065000163801968093153890931638811522E04C
:10066000920780F08115944078F01092153810921E
:1006700016380AC0109215381092163805C000E0DE
:1006800010E002C0D0E0C0E00E9403028091003878
:100690008F5F80930038893118F081E080930038B3
:1006A00080910638833041F128F4813051F0823056
:1006B00091F005C0853099F120F18630B1F180E0EC
:1006C00043C080910038883091F1803191F18831B8
:1006D00091F180E039C0209100388BEA289F812D6C
:1006E000112486958695982F990F890F982F990F29
:1006F000291323C080E028C0809100388370F9F46A
:1007000023C0909100388BEA989F812D1124869503
:10071000282F220F820F981314C080E015C08091FB
:10072000003880FD10C080E00FC081E00DC081E086
:100730000BC081E009C081E007C081E005C081E015
:1007400003C081E001C081E08823B9F180911438B1
:100750008230E9F028F4882341F0813059F02DC02F
:100760008330D1F08430E9F028C085B1806185B94B
:10077000C1B923C089B1886089B9D1B980912238C3
:100780008823D9F089B18E7FF82AF9B816C085B1CF
:10079000806285B9E1B811C089B1846089B911B9A5
:1007A0000CC089B1826089B901B98091223888234F
:1007B00021F089B18E7FF82AF9B8809114388F5FC3
:1007C00080931438853009F093C0109214388091CA
:1007D00048019091490180FF04C080910838813020
:1007E00021F086E08093173802C0109217384091AC
:1007F0004801509149019A01A9E8B8E80E941908F6
:100800000024880F991F001C880F991F001C892F36
:10081000902D68E7689F9001699F300D1124421761
:100820005307F1F48091053881111CC081E0809359
:100830000538809131388F5F809331388C3340F0A8
:10084000909130389F5F909330388C53809331383B
:1008500080913038883130F088518093303802C030
:100860001092053880912E3890912F38009729F0FA
:10087000019780932E3890932F38809122388823C7
:1008800019F0815080932238319B05C010922C388A
:1008900010922D382DC080912C3890912D380196D2
:1008A00080932C3890932D38813B944008F110921E
:1008B0002C3810922D380E94210280E00E941002F4
:1008C00081E080932B381092033880910838823071
:1008D00079F4809120388F5F80932038833028F01E
:1008E000109220381092043803C081E080930438BD
:1008F000FF91EF91DF91CF91BF91AF919F918F9138
:100900007F916F915F914F913F912F911F910F9127
:10091000FF90EF900F900FBE0F901F9018951F92B1
:100920000F920FB60F9211242F933F934F935F9323
:100930006F937F938F939F93AF93BF93CF93DF93E7
:10094000EF93FF93E9E2F4E0808182608083309B43
:1009500061C0309B5FC080910738882321F01092DE
:1009600007380E945D00E0912E38F0912F383097C3
:1009700009F047C040914801509149019A01A9E806
:10098000B8E80E941908EC010024CC0FDD1F001C00
:10099000CC0FDD1F001CCD2FD02DCA0160E27CE101
:1009A0000E94050840913238460F409330389E012E
:1009B000A9E8B8E80E9419089695879592958295BE
:1009C0008F7089279F7089275CE3589F9001599FFA
:1009D000300D1124CE01821B930B90913338890F77
:1009E000809331388C3330F04F5F409330388C53E4
:1009F0008093313880913038883118F08851809355
:100A00003038E83EF34030F488EE93E080932E389F
:100A100090932F38FF91EF91DF91CF91BF91AF91DC
:100A20009F918F917F916F915F914F913F912F9106
:100A30000F900FBE0F901F9018951F920F920FB638
:100A40000F9211242F933F934F935F936F937F9354
:100A50008F939F93AF93BF93EF93FF9310924801AF
:100A600010924901E3E4F1E080818260808380910B
:100A70000838813051F480913238875F8093323862
:100A8000883118F088518093323880912E389091B7
:100A90002F38892B09F03DC00E945D0060912738F6
:100AA000709128388091293890912A382AE939E9BB
:100AB00049ED5FE30E943B06181694F088EDA89577
:100AC00084BF8091000181608093000180910101C9
:100AD00081FDFCCF87EA91E60197F1F700C00000A5
:100AE00060912738709128388091293890912A3860
:100AF00026E636E646EA50E40E94930788234CF047
:100B000088E59BE180932E3890932F3881E0809385
:100B10002138FF91EF91BF91AF919F918F917F917C
:100B20006F915F914F913F912F910F900FBE0F905A
:100B30001F90189588ED84BF1092600084BF97E0E5
:100B4000909361009FEF90B92CEF24B998B911B838
:100B500015B819B891E09093300428E0209331043F
:100B600084BF90937C0082E0809342018093470190
:100B70008091410180FDFCCF81EF809340018FE1A6
:100B80009DEF80934C0190934D011092480110927B
:100B900049018DE08093000A1092010A81E090E003
:100BA0008093280A9093290A80E180930A0A91E0B1
:100BB000909300061092010695E5909302068093AB
:100BC000A000E0E5F0E08081897F8260808381EE93
:100BD00094E00197F1F700C00000789423C00E94D0
:100BE0005D00609127387091283880912938909164
:100BF0002A3823E333E343EA50E40E943B06882388
:100C00003CF41092213810922E3810922F380EC0DA
:100C100088EB9BE00E94790188E59BE180932E3868
:100C200090932F38809121388111D9CF80912E381F
:100C300090912F38892BD1F40E94030281E00E9409
:100C400010021092223881E08093073810922038E9
:100C50008FEF8093013880930238E0E5F0E08081E7
:100C600081608083889580818E7F808385E090E09D
:100C70000E947901D7CF0E941E0708F481E00895F1
:100C80000E9454060C9459070E94520758F00E9483
:100C90004B0740F029F45F3F29F00C9442075111B3
:100CA0000C948D070C9448070E946A0768F39923F7
:100CB000B1F3552391F3951B550BBB27AA27621758
:100CC0007307840738F09F5F5F4F220F331F441F65
:100CD000AA1FA9F335D00E2E3AF0E0E832D0915099
:100CE0005040E695001CCAF72BD0FE2F29D0660F86
:100CF000771F881FBB1F261737074807AB07B0E8C9
:100D000009F0BB0B802DBF01FF2793585F4F3AF0CE
:100D10009E3F510578F00C9442070C948D075F3F7D
:100D2000E4F3983ED4F3869577956795B795F79554
:100D30009F5FC9F7880F911D9695879597F908953C
:100D4000E1E0660F771F881FBB1F621773078407D8
:100D5000BA0720F0621B730B840BBA0BEE1F88F7E7
:100D6000E09508950E94720788F09F5798F0B92F78
:100D70009927B751B0F0E1F0660F771F881F991FD0
:100D80001AF0BA95C9F714C0B13091F00E948C07DF
:100D9000B1E008950C948C07672F782F8827B85FEF
:100DA00039F0B93FCCF3869577956795B395D9F728
:100DB0003EF490958095709561957F4F8F4F9F4F32
:100DC0000895E89409C097FB3EF49095809570953E
:100DD00061957F4F8F4F9F4F9923A9F0F92F96E987
:100DE000BB279395F695879577956795B795F111FC
:100DF000F8CFFAF4BB0F11F460FF1BC06F5F7F4F99
:100E00008F4F9F4F16C0882311F096E911C07723AA
:100E100021F09EE8872F762F05C0662371F096E8B3
:100E2000862F70E060E02AF09A95660F771F881F82
:100E3000DAF7880F9695879597F90895990F000826
:100E4000550FAA0BE0E8FEEF16161706E807F9079C
:100E5000C0F012161306E407F50798F0621B730B37
:100E6000840B950B39F40A2661F0232B242B252BB8
:100E700021F408950A2609F4A140A6958FEF811D5B
:100E8000811D089597F99F6780E870E060E00895FC
:100E90009FEF80EC089500240A9416161706180692
:100EA0000906089500240A9412161306140605066E
:100EB0000895092E0394000C11F4882352F0BB0FFF
:100EC00040F4BF2B11F460FF04C06F5F7F4F8F4F62
:100ED0009F4F089557FD9058440F551F59F05F3F9D
:100EE00071F04795880F97FB991F61F09F3F79F04C
:100EF00087950895121613061406551FF2CF4695CE
:100F0000F1DF08C0161617061806991FF1CF86954F
:100F10007105610508940895E894BB276627772733
:100F2000CB0197F908950E941E0708F48FEF0895EA
:100F30000E94AB070C9459070E944B0738F00E949F
:100F4000520720F0952311F00C9442070C944807A7
:100F500011240C948D070E946A0770F3959FC1F3CA
:100F6000950F50E0551F629FF001729FBB27F00D57
:100F7000B11D639FAA27F00DB11DAA1F649F6627AC
:100F8000B00DA11D661F829F2227B00DA11D621FFB
:100F9000739FB00DA11D621F839FA00D611D221FB5
:100FA000749F3327A00D611D231F849F600D211D99
:100FB000822F762F6A2F11249F5750409AF0F1F01C
:100FC00088234AF0EE0FFF1FBB1F661F771F881F85
:100FD00091505040A9F79E3F510580F00C94420774
:100FE0000C948D075F3FE4F3983ED4F38695779594
:100FF0006795B795F795E7959F5FC1F7FE2B880F2B
:10100000911D9695879597F90895AA1BBB1B51E1F1
:1010100007C0AA1FBB1FA617B70710F0A61BB70B68
:10102000881F991F5A95A9F780959095BC01CD010D
:101030000895A29FB001B39FC001A39F700D811DB1
:101040001124911DB29F700D811D1124911D0895D1
:04105000F894FFCF42
:1010540001FFFF0101010601017E0CB69ECCDAFA04
:041064004EFEDE005E
:00000001FF
