:100000000C943E000C945B000C945B000C945B0021
:100010000C943B010C945B000C945A010C945B0013
:100020000C945B000C945B000C946A000C945B00D5
:100030000C945B000C945B000C945B000C945B00D4
:100040000C945B000C945B000C945B000C945B00C4
:100050000C945B000C945B000C945B000C945B00B4
:100060000C945B000C945B000C945B000C945B00A4
:100070000C945B000C945B000C945B0011241FBE7D
:10008000CFEFCDBFDFE3DEBF18E3A0E0B8E3E0ECE5
:10009000F3E002C005900D92AA30B107D9F728E32A
:1000A000AAE0B8E301C01D92AF30B207E1F70E94A9
:1000B00085010C94DE010C94000081B1817081B93E
:1000C00089B18E7F89B985B18F7C85B989B1817FEE
:1000D00089B908951F920F920FB60F9211240F93B2
:1000E0001F932F933F934F935F936F937F938F93C0
:1000F0009F93AF93BF93CF93DF93EF93FF93809141
:100100000B3890910C38892B19F40E945D009EC029
:100110001092200A1092210A80E180930B0AA0918C
:100120000E38EDECAE9F812D11248695869586952F
:10013000880F982F990F990F890FA81BB0E0A05036
:10014000B84CCC91A0910E38AE9FA12D1124A6954C
:10015000A695A695AE9F812D1124869586958695A8
:10016000880F982F990F990F890FA81BB0E0A05006
:10017000B84CDC91A0910D38AE9F812D112486954D
:1001800086958695880F982F990F990F890FA81B30
:10019000B0E0A050B84C0C9180910D388E9F812D0D
:1001A00011248695869586958E9FE12D1124E695DE
:1001B000E695E695EE0F9E2F990F990FE90F8E1B8E
:1001C00031F0E82FF0E0E050F84C108101C010E071
:1001D0000E945D0080910A388230A9F028F48823BB
:1001E00041F0813059F01EC0833099F08430B1F075
:1001F00019C085B1806185B9C1B914C089B1886061
:1002000089B9D1B90FC085B1806285B986E081B95D
:1002100009C089B1846089B901B904C089B182601B
:1002200089B911B980910A388F5F80930A38853077
:1002300069F410920A3880910B3890910C3800972D
:1002400029F0019780930B3890930C38FF91EF9130
:10025000DF91CF91BF91AF919F918F917F916F91DE
:100260005F914F913F912F911F910F910F900FBE72
:100270000F901F9018951F920F920FB60F92112496
:100280008F939F93EF93FF93E9E2F4E08081826084
:100290008083309B06C080E293E080930B3890937C
:1002A0000C38FF91EF919F918F910F900FBE0F909F
:1002B0001F9018951F920F920FB60F9211248F93D3
:1002C000EF93FF931092480110924901E3E4F1E0AB
:1002D00080818260808380910E388F5F80930E389A
:1002E0008C3358F010920E3880910D388F5F8093C8
:1002F0000D38883110F010920D38FF91EF918F91E9
:100300000F900FBE0F901F90189588ED84BF10922C
:10031000600084BF9BE0909361009FEF90B92CEF49
:1003200024B998B911B815B819B891E09093300470
:1003300028E02093310484BF90937C0082E0809376
:100340004201809347018091410180FDFCCF89EFFC
:100350008093400110924C0110924D018DE08093EA
:10036000000A1092010A81E090E08093280A90939D
:10037000290A80E180930A0AE0E5F0E08081897F24
:100380008260808388E391E00197F1F70000789420
:1003900080910B3890910C38892B59F40E945D00A4
:1003A000E0E5F0E0808181608083889580818E7FA8
:1003B000808393E59A95F1F70000EACFF894FFCF98
:0A03C0007E0CB69ECCDAFA4EFEDE8B
:00000001FF
