:100000000C943E000C945B000C945B000C945B0021
:100010000C94C7020C945B000C9400030C945B00DE
:100020000C945B000C945B000C9436010C945B0008
:100030000C945B000C945B000C945B000C945B00D4
:100040000C945B000C945B000C945B000C945B00C4
:100050000C945B000C945B000C945B000C945B00B4
:100060000C945B000C945B000C945B000C945B00A4
:100070000C945B000C945B000C945B0011241FBE7D
:10008000CFEFCDBFDFE3DEBF18E3A0E0B8E3EAEFD8
:10009000FBE002C005900D92AE30B107D9F728E31E
:1000A000AEE0B8E301C01D92A332B207E1F70E94AF
:1000B0008E030C94FB050C94000080910238833071
:1000C00011F481E001C08F5F809302380895CF92D0
:1000D000DF92EF92FF9210923104219A29988DE1DC
:1000E0008093060681E080930806809108068111BE
:1000F000FCCF10920806609110067091110680E006
:1001000090E00E94CB046B017C019B01AC016AE989
:1001100079EA8CE894E40E942A046093183870937A
:10012000193880931A3890931B3821988AE080936D
:10013000060681E080930806809108068111FCCFB5
:1001400010920806609110067091110689E0809364
:10015000310480E090E00E94CB042DEC3CEC4CE8B4
:100160005FE30E948205A70196010E942A04609322
:100170001438709315388093163890931738FF9081
:10018000EF90DF90CF900895DF92EF92FF920F9360
:100190001F93CF93DF93EC01E12CF12C00EA1FE0D9
:1001A00088ECD82EEC16FD0609F44DC0319941C0FB
:1001B00000931F381093203880910238823091F0DC
:1001C000833031F18130A9F5319BFECF80911C380D
:1001D000882319F010921C382CC00E946700D0921E
:1001E00013380FC0319BFECF80911C388111F2CFA4
:1001F000809121388F5F80932138883110F01092E0
:10020000213887EA91E60197F1F700C0000011C09C
:10021000319BFECF80911C388111DCCF8091223838
:100220008F5F8C3318F48093223803C010922238E9
:10023000DFCF89EF90E00197F1F700C000009FEF5A
:10024000E91AF90AAFCFDF91CF911F910F91FF907B
:10025000EF90DF90089581B1817081B9489885B1A0
:100260008F7C85B989B1817F89B908951F920F92DA
:100270000FB60F9211248F929F92AF92BF92EF927E
:10028000FF920F931F932F933F934F935F936F931F
:100290007F938F939F93AF93BF93CF93DF93EF930E
:1002A000FF931092200A1092210A80E180930B0A9A
:1002B00080911F3890912038892B19F40E942B01CE
:1002C0004BC18091133820910238882309F449C02A
:1002D000213009F046C020E030E040E251E4609176
:1002E00018387091193880911A3890911B380E94F3
:1002F00082050E949C04C62F20E030E040E251E4D9
:100300006091143870911538809116389091173893
:100310000E9482050E949C04362F2AE08C2F622FB7
:100320000E94EF05E92FF0E0ED5FF74CD0810E94CD
:10033000EF05E92FF0E0ED5FF74CC081832F0E94BD
:10034000EF05E92FF0E0ED5FF74C10810E94EF051B
:10035000E92FF0E0ED5FF74C0081FF24F394E12CEE
:100360004CC0809122383AE0632F0E94EF05E92FBC
:10037000F0E0ED5FF74CD0810E94EF05E92FF0E04F
:10038000ED5FF74CC081809121380E94EF05E92F85
:10039000F0E0ED5FF74C10810E94EF05992339F0F2
:1003A000E92FF0E0ED5FF74C0081F12C02C0F12C59
:1003B00000E086E0E82E223071F480910F389091B1
:1003C0001038019680930F3890931038811522E0F1
:1003D0009207C0F00FC0233081F480910F389091C4
:1003E0001038019680930F3890931038811522E0D1
:1003F000920758F08115944050F010920F381092E7
:10040000103805C000E010E002C0C0E0D0E00E945B
:100410002B018090143890901538A0901638B09029
:1004200017382AE939E949E95FE3C501B4010E94B7
:100430007D05181624F080911138882311F083E08F
:100440000DC020E030E040E05FE3C501B4010E9450
:100450007D05181614F482E001C081E08093003815
:10046000809112388F5F883018F48093123802C060
:100470001092123880910038833069F0823029F46C
:100480008091123880FD07C00DC0813059F48091F1
:100490001238837039F480910E38823009F03FC0F1
:1004A0002D9AE1B880910E388F5F853019F08093D6
:1004B0000E3852C010920E3880911F38909120381B
:1004C000009729F0019780931F38909320388091EE
:1004D0001338882319F0815080931338319B05C05D
:1004E00010921D3810921E3837C080911D3890919F
:1004F0001E38019680931D3890931E38813B94409E
:1005000058F110921D3810921E3810924801109226
:1005100049010E945D0081E080931C381DC083303A
:1005200028F4811109C02C9AD1B904C0833051F448
:100530004A9A11B94898B6CF813009F0B3CF4B9A97
:10054000C1B905C0843009F0ADCF499A01B9F0FCBA
:10055000489AF0FE4898A6CFFF91EF91DF91CF9196
:10056000BF91AF919F918F917F916F915F914F91CB
:100570003F912F911F910F91FF90EF90BF90AF90FF
:100580009F908F900F900FBE0F901F9018951F9205
:100590000F920FB60F9211242F933F934F935F93B7
:1005A0006F937F938F939F93AF93BF93EF93FF933B
:1005B00080912904826080932904309B10C0309B75
:1005C0000EC088EE93E080931F389093203880917E
:1005D0000138882321F0109201380E946700FF91B2
:1005E000EF91BF91AF919F918F917F916F915F91AB
:1005F0004F913F912F910F900FBE0F901F90189524
:100600001F920F920FB60F9211242F933F934F9387
:100610005F936F937F938F939F93AF93BF93EF936A
:10062000FF9310924801109249018091430182602A
:1006300080934301809102388130A1F48091223867
:100640008F5F8C3318F4809322380CC010922238BC
:10065000809121388F5F883118F48093213809C048
:1006600010922138809122386EE10E94EF0591119D
:1006700044C080911F3890912038892B09F03DC0EB
:100680000E9467002AE939E949ED5FE36091183873
:100690007091193880911A3890911B380E94250466
:1006A000181694F088EDA89584BF809100018160B0
:1006B000809300018091010181FDFCCF87EA91E6E2
:1006C0000197F1F700C0000026E636E646EA50E45E
:1006D000609118387091193880911A3890911B38B0
:1006E0000E947D0587FD09C080E099E180931F3855
:1006F0009093203881E080931138FF91EF91BF9162
:10070000AF919F918F917F916F915F914F913F91A9
:100710002F910F900FBE0F901F90189588ED84BFFA
:100720001092600084BF97E0909361009FEF90B9B2
:100730002CEF24B998B911B815B819B891E0909375
:10074000300428E02093310484BF90937C0082E041
:1007500080934201809347018091410180FDFCCF4D
:1007600089EF809340018BE390E080934C0190935C
:100770004D018DE08093000A1092010A81E090E023
:100780008093280A9093290A80E180930A0A91E0D5
:10079000909300061092010695E5909302068093CF
:1007A000A00080915000897F82608093500081EE8C
:1007B00094E00197F1F700C000007894C1E000E0F8
:1007C00019E180911138882311F10E94670023E319
:1007D00033E343EA50E460911838709119388091FE
:1007E0001A3890911B380E94250487FF07C0109289
:1007F000113810921F381092203809C088EB9BE006
:100800000E94C40000931F3810932038DACF8091E3
:100810001F3890912038892B99F40E942B01C093A6
:10082000023810921338C0930138809150008160D3
:10083000809350008895809150008E7F8093500067
:1008400085E090E00E94C400BCCF0E94080508F437
:1008500081E008950E943E040C9443050E943C05EB
:1008600058F00E94350540F029F45F3F29F00C94C0
:100870002C0551110C9477050C9432050E945405F7
:1008800068F39923B1F3552391F3951B550BBB27BF
:10089000AA2762177307840738F09F5F5F4F220F04
:1008A000331F441FAA1FA9F335D00E2E3AF0E0E8FB
:1008B00032D091505040E695001CCAF72BD0FE2F45
:1008C00029D0660F771F881FBB1F261737074807D9
:1008D000AB07B0E809F0BB0B802DBF01FF27935891
:1008E0005F4F3AF09E3F510578F00C942C050C9424
:1008F00077055F3FE4F3983ED4F386957795679547
:10090000B795F7959F5FC9F7880F911D96958795C5
:1009100097F90895E1E0660F771F881FBB1F6217E4
:1009200073078407BA0720F0621B730B840BBA0BA2
:10093000EE1F88F7E09508950E945C0588F09F57A8
:1009400098F0B92F9927B751B0F0E1F0660F771FF3
:10095000881F991F1AF0BA95C9F714C0B13091F0E9
:100960000E947605B1E008950C947605672F782FE4
:100970008827B85F39F0B93FCCF3869577956795AE
:10098000B395D9F73EF490958095709561957F4F1A
:100990008F4F9F4F0895E89409C097FB3EF49095C0
:1009A0008095709561957F4F8F4F9F4F9923A9F048
:1009B000F92F96E9BB279395F695879577956795D7
:1009C000B795F111F8CFFAF4BB0F11F460FF1BC01B
:1009D0006F5F7F4F8F4F9F4F16C0882311F096E9AE
:1009E00011C0772321F09EE8872F762F05C066235C
:1009F00071F096E8862F70E060E02AF09A95660F15
:100A0000771F881FDAF7880F9695879597F90895CD
:100A1000990F0008550FAA0BE0E8FEEF161617060F
:100A2000E807F907C0F012161306E407F50798F077
:100A3000621B730B840B950B39F40A2661F0232B90
:100A4000242B252B21F408950A2609F4A140A6950C
:100A50008FEF811D811D089597F99F6780E870E0F1
:100A600060E008959FEF80EC089500240A94161624
:100A7000170618060906089500240A94121613068C
:100A8000140605060895092E0394000C11F488231A
:100A900052F0BB0F40F4BF2B11F460FF04C06F5F36
:100AA0007F4F8F4F9F4F089557FD9058440F551F0C
:100AB00059F05F3F71F04795880F97FB991F61F0E0
:100AC0009F3F79F087950895121613061406551F57
:100AD000F2CF4695F1DF08C0161617061806991FC3
:100AE000F1CF86957105610508940895E894BB27B8
:100AF00066277727CB0197F908950E94080508F427
:100B00008FEF08950E9495050C9443050E943505CA
:100B100038F00E943C0520F0952311F00C942C0530
:100B20000C94320511240C9477050E94540570F33F
:100B3000959FC1F3950F50E0551F629FF001729F82
:100B4000BB27F00DB11D639FAA27F00DB11DAA1F91
:100B5000649F6627B00DA11D661F829F2227B00DDE
:100B6000A11D621F739FB00DA11D621F839FA00D69
:100B7000611D221F749F3327A00D611D231F849FB9
:100B8000600D211D822F762F6A2F11249F57504010
:100B90009AF0F1F088234AF0EE0FFF1FBB1F661F8B
:100BA000771F881F91505040A9F79E3F510580F054
:100BB0000C942C050C9477055F3FE4F3983ED4F336
:100BC000869577956795B795F795E7959F5FC1F7F8
:100BD000FE2B880F911D9695879597F90895991B7F
:100BE00079E004C0991F961708F0961B881F7A9524
:0A0BF000C9F780950895F894FFCF2F
:0E0BFA000301017E0CB69ECCDAFA4EFEDE0040
:00000001FF
